{
  "transactions": [
    {
      "hash": "0x460ba91b41f2a29f974f2ebaf388bdd79bd9b1f8e934fac006d04e699a24662d",
      "transactionType": "CALL",
      "contractName": null,
      "contractAddress": "0xfae2680f0542e49cde0dbb055a08ff589615827b",
      "function": "approve(address,uint256)",
      "arguments": [
        "0x71cD4Ea054F9Cb3D3BF6251A00673303411A7DD9",
        "115792089237316195423570985008687907853269984665640564039457584007913129639935"
      ],
      "transaction": {
        "from": "0x89fedb2167197199fd069122e5351a1c779f91b8",
        "to": "0xfae2680f0542e49cde0dbb055a08ff589615827b",
        "gas": "0x10312",
        "value": "0x0",
        "input": "0x095ea7b300000000000000000000000071cd4ea054f9cb3d3bf6251a00673303411a7dd9ffffffffffffffffffffffffffffffffffffffffffffffffffffffffffffffff",
        "nonce": "0x389",
        "chainId": "0x14a34"
      },
      "additionalContracts": [],
      "isFixedGasLimit": false
    },
    {
      "hash": "0xc1d2ff10ef0bdca7b9e9279e6f1cc1e3b6a3b5b5a05b001eb467df3aa9d8e7c7",
      "transactionType": "CALL",
      "contractName": null,
      "contractAddress": "0xc2f9a0d977afa1df712abd4aac7c8109e3b17e50",
      "function": "approve(address,uint256)",
      "arguments": [
        "0x71cD4Ea054F9Cb3D3BF6251A00673303411A7DD9",
        "115792089237316195423570985008687907853269984665640564039457584007913129639935"
      ],
      "transaction": {
        "from": "0x89fedb2167197199fd069122e5351a1c779f91b8",
        "to": "0xc2f9a0d977afa1df712abd4aac7c8109e3b17e50",
        "gas": "0x10312",
        "value": "0x0",
        "input": "0x095ea7b300000000000000000000000071cd4ea054f9cb3d3bf6251a00673303411a7dd9ffffffffffffffffffffffffffffffffffffffffffffffffffffffffffffffff",
        "nonce": "0x38a",
        "chainId": "0x14a34"
      },
      "additionalContracts": [],
      "isFixedGasLimit": false
    },
    {
      "hash": "0xf89f13d6d051aead0ec3e1c09509e0f07d7af0f0918a9263ac0fa278a4a3155f",
      "transactionType": "CALL",
      "contractName": null,
      "contractAddress": "0x71cd4ea054f9cb3d3bf6251a00673303411a7dd9",
      "function": "swapExactTokensForTokens(uint256,uint256,bool,(address,address,uint24,int24,address),bytes,address,uint256)",
      "arguments": [
        "1000000000000000000",
        "0",
        "true",
        "(0xc2f9a0D977Afa1DF712AbD4AAC7C8109E3B17E50, 0xfAE2680F0542E49CDE0DBB055a08FF589615827B, 3000, 60, 0xAE3fAB38b61fc887934138e81BD97FE65C414aC0)",
        "0x",
        "0xAE3fAB38b61fc887934138e81BD97FE65C414aC0",
        "1764839026"
      ],
      "transaction": {
        "from": "0x89fedb2167197199fd069122e5351a1c779f91b8",
        "to": "0x71cd4ea054f9cb3d3bf6251a00673303411a7dd9",
        "gas": "0x4a0ad",
        "value": "0x0",
        "input": "0xb1a0d5710000000000000000000000000000000000000000000000000de0b6b3a764000000000000000000000000000000000000000000000000000000000000000000000000000000000000000000000000000000000000000000000000000000000001000000000000000000000000c2f9a0d977afa1df712abd4aac7c8109e3b17e50000000000000000000000000fae2680f0542e49cde0dbb055a08ff589615827b0000000000000000000000000000000000000000000000000000000000000bb8000000000000000000000000000000000000000000000000000000000000003c000000000000000000000000ae3fab38b61fc887934138e81bd97fe65c414ac00000000000000000000000000000000000000000000000000000000000000160000000000000000000000000ae3fab38b61fc887934138e81bd97fe65c414ac00000000000000000000000000000000000000000000000000000000069314e720000000000000000000000000000000000000000000000000000000000000000",
        "nonce": "0x38b",
        "chainId": "0x14a34"
      },
      "additionalContracts": [],
      "isFixedGasLimit": false
    }
  ],
  "receipts": [
    {
      "status": "0x1",
      "cumulativeGasUsed": "0x16fde",
      "logs": [
        {
          "address": "0xfae2680f0542e49cde0dbb055a08ff589615827b",
          "topics": [
            "0x8c5be1e5ebec7d5bd14f71427d1e84f3dd0314c0f7b2291e5b200ac8c7c3b925",
            "0x00000000000000000000000089fedb2167197199fd069122e5351a1c779f91b8",
            "0x00000000000000000000000071cd4ea054f9cb3d3bf6251a00673303411a7dd9"
          ],
          "data": "0xffffffffffffffffffffffffffffffffffffffffffffffffffffffffffffffff",
          "blockHash": "0xa5c9eec0aed3a981511dfe96d107eee14f146fc14e5b07471a6043a671f686e9",
          "blockNumber": "0x20ef7c1",
          "blockTimestamp": "0x69314e62",
          "transactionHash": "0xc1d2ff10ef0bdca7b9e9279e6f1cc1e3b6a3b5b5a05b001eb467df3aa9d8e7c7",
          "transactionIndex": "0x1",
          "logIndex": "0x0",
          "removed": false
        }
      ],
      "logsBloom": "0x00000000000000000000000000000000000000000000000000400000004000000000000000000000000000000000000000000000000000000080000000200000000000000000000000000000000000000000000000000000000000000000000000000000000000000000000000000000000000000000000000000000000000000000000000000000000000000000000000000000000000000004000000000000020000000000000000000000000000000000000000002000004000000000000000000000000000000000020020000000000000000000000000000000000000020010000000000000000000000000000000000000000000000000000000000000",
      "type": "0x2",
      "transactionHash": "0xc1d2ff10ef0bdca7b9e9279e6f1cc1e3b6a3b5b5a05b001eb467df3aa9d8e7c7",
      "transactionIndex": "0x1",
      "blockHash": "0xa5c9eec0aed3a981511dfe96d107eee14f146fc14e5b07471a6043a671f686e9",
      "blockNumber": "0x20ef7c1",
      "gasUsed": "0xbb90",
      "effectiveGasPrice": "0x12d97c",
      "blobGasUsed": "0x79e0",
      "from": "0x89fedb2167197199fd069122e5351a1c779f91b8",
      "to": "0xfae2680f0542e49cde0dbb055a08ff589615827b",
      "contractAddress": null,
      "daFootprintGasScalar": "0x138",
      "l1BaseFeeScalar": "0x44d",
      "l1BlobBaseFee": "0x1",
      "l1BlobBaseFeeScalar": "0xa118b",
      "l1Fee": "0x53",
      "l1GasPrice": "0xa",
      "l1GasUsed": "0x640"
    },
    {
      "status": "0x1",
      "cumulativeGasUsed": "0x22b6e",
      "logs": [
        {
          "address": "0xc2f9a0d977afa1df712abd4aac7c8109e3b17e50",
          "topics": [
            "0x8c5be1e5ebec7d5bd14f71427d1e84f3dd0314c0f7b2291e5b200ac8c7c3b925",
            "0x00000000000000000000000089fedb2167197199fd069122e5351a1c779f91b8",
            "0x00000000000000000000000071cd4ea054f9cb3d3bf6251a00673303411a7dd9"
          ],
          "data": "0xffffffffffffffffffffffffffffffffffffffffffffffffffffffffffffffff",
          "blockHash": "0xa5c9eec0aed3a981511dfe96d107eee14f146fc14e5b07471a6043a671f686e9",
          "blockNumber": "0x20ef7c1",
          "blockTimestamp": "0x69314e62",
          "transactionHash": "0xf89f13d6d051aead0ec3e1c09509e0f07d7af0f0918a9263ac0fa278a4a3155f",
          "transactionIndex": "0x2",
          "logIndex": "0x1",
          "removed": false
        }
      ],
      "logsBloom": "0x00000000000000000000000000000000000000000000000000400000000000000000000000000000000000000000000000000000000000000080000000200000000000000000000000000000000000000000000000000000000000000000000000000000000000000000000000000800000000000000000000000000000000000000000000000000000000000000000000000000000000000004000000000000020000000000000000000000000000000000000000002800004000000000000000000000000000000000020000002000000000000000000000000000000000000010000000000000000000000000000000000000000000000000000000000000",
      "type": "0x2",
      "transactionHash": "0xf89f13d6d051aead0ec3e1c09509e0f07d7af0f0918a9263ac0fa278a4a3155f",
      "transactionIndex": "0x2",
      "blockHash": "0xa5c9eec0aed3a981511dfe96d107eee14f146fc14e5b07471a6043a671f686e9",
      "blockNumber": "0x20ef7c1",
      "gasUsed": "0xbb90",
      "effectiveGasPrice": "0x12d97c",
      "blobGasUsed": "0x79e0",
      "from": "0x89fedb2167197199fd069122e5351a1c779f91b8",
      "to": "0xc2f9a0d977afa1df712abd4aac7c8109e3b17e50",
      "contractAddress": null,
      "daFootprintGasScalar": "0x138",
      "l1BaseFeeScalar": "0x44d",
      "l1BlobBaseFee": "0x1",
      "l1BlobBaseFeeScalar": "0xa118b",
      "l1Fee": "0x53",
      "l1GasPrice": "0xa",
      "l1GasUsed": "0x640"
    },
    {
      "status": "0x1",
      "cumulativeGasUsed": "0x55577",
      "logs": [
        {
          "address": "0x05e73354cfdd6745c338b50bcfdfa3aa6fa03408",
          "topics": [
            "0x40e9cecb9f5f1f1c5b9c97dec2917b7ee92e57ba5563708daca94dd84ad7112f",
            "0x2228a3650bc28986d2dc68c9d2f0d93a6578fd0e5a2bb8c3c4d187a513a9ef3b",
            "0x00000000000000000000000071cd4ea054f9cb3d3bf6251a00673303411a7dd9"
          ],
          "data": "0xfffffffffffffffffffffffffffffffffffffffffffffffff21f494c589c00000000000000000000000000000000000000000000000000000db6be37da38c9470000000000000000000000000000000000000000fdbca5f77c29c153f64eec5b0000000000000000000000000000000000000000000000060f4da7fe284f5deaffffffffffffffffffffffffffffffffffffffffffffffffffffffffffffff4e0000000000000000000000000000000000000000000000000000000000000bb8",
          "blockHash": "0xa5c9eec0aed3a981511dfe96d107eee14f146fc14e5b07471a6043a671f686e9",
          "blockNumber": "0x20ef7c1",
          "blockTimestamp": "0x69314e62",
          "transactionHash": "0x460ba91b41f2a29f974f2ebaf388bdd79bd9b1f8e934fac006d04e699a24662d",
          "transactionIndex": "0x3",
          "logIndex": "0x2",
          "removed": false
        },
        {
          "address": "0xc2f9a0d977afa1df712abd4aac7c8109e3b17e50",
          "topics": [
            "0xddf252ad1be2c89b69c2b068fc378daa952ba7f163c4a11628f55a4df523b3ef",
            "0x00000000000000000000000089fedb2167197199fd069122e5351a1c779f91b8",
            "0x00000000000000000000000005e73354cfdd6745c338b50bcfdfa3aa6fa03408"
          ],
          "data": "0x0000000000000000000000000000000000000000000000000de0b6b3a7640000",
          "blockHash": "0xa5c9eec0aed3a981511dfe96d107eee14f146fc14e5b07471a6043a671f686e9",
          "blockNumber": "0x20ef7c1",
          "blockTimestamp": "0x69314e62",
          "transactionHash": "0x460ba91b41f2a29f974f2ebaf388bdd79bd9b1f8e934fac006d04e699a24662d",
          "transactionIndex": "0x3",
          "logIndex": "0x3",
          "removed": false
        },
        {
          "address": "0xfae2680f0542e49cde0dbb055a08ff589615827b",
          "topics": [
            "0xddf252ad1be2c89b69c2b068fc378daa952ba7f163c4a11628f55a4df523b3ef",
            "0x00000000000000000000000005e73354cfdd6745c338b50bcfdfa3aa6fa03408",
            "0x000000000000000000000000ae3fab38b61fc887934138e81bd97fe65c414ac0"
          ],
          "data": "0x0000000000000000000000000000000000000000000000000db6be37da38c947",
          "blockHash": "0xa5c9eec0aed3a981511dfe96d107eee14f146fc14e5b07471a6043a671f686e9",
          "blockNumber": "0x20ef7c1",
          "blockTimestamp": "0x69314e62",
          "transactionHash": "0x460ba91b41f2a29f974f2ebaf388bdd79bd9b1f8e934fac006d04e699a24662d",
          "transactionIndex": "0x3",
          "logIndex": "0x4",
          "removed": false
        }
      ],
      "logsBloom": "0x00000000000000000000000000001000000000000000000000400000004000000000002100000000000000000000000000000000040000000080000000000000000000000010000000000008000000000000000000100020000000000000000000000000000000000000000000000800000000000000000000000010000000000000000004000004000000000000000000000000000000000004000000000000000000000000000000000000000000000010000000002800004000000000000000000002001000000000024020002000000000000000000000000000000000020000000400000000004000000800000000000000000000000000000000000000",
      "type": "0x2",
      "transactionHash": "0x460ba91b41f2a29f974f2ebaf388bdd79bd9b1f8e934fac006d04e699a24662d",
      "transactionIndex": "0x3",
      "blockHash": "0xa5c9eec0aed3a981511dfe96d107eee14f146fc14e5b07471a6043a671f686e9",
      "blockNumber": "0x20ef7c1",
      "gasUsed": "0x32a09",
      "effectiveGasPrice": "0x12d97c",
      "blobGasUsed": "0xd410",
      "from": "0x89fedb2167197199fd069122e5351a1c779f91b8",
      "to": "0x71cd4ea054f9cb3d3bf6251a00673303411a7dd9",
      "contractAddress": null,
      "daFootprintGasScalar": "0x138",
      "l1BaseFeeScalar": "0x44d",
      "l1BlobBaseFee": "0x1",
      "l1BlobBaseFeeScalar": "0xa118b",
      "l1Fee": "0x91",
      "l1GasPrice": "0xa",
      "l1GasUsed": "0xae1"
    }
  ],
  "libraries": [],
  "pending": [],
  "returns": {},
  "timestamp": 1764839010220,
  "chain": 84532,
  "commit": "7025c08"
}