{
  "transactions": [
    {
      "hash": "0x1061571e66f02e7ab6bc5abcd78869042f6916f6c9ac5b63635aca947c0dcb84",
      "transactionType": "CREATE2",
      "contractName": "Counter",
      "contractAddress": "0x38646f6edb13387813c97474ddd79304d49e8ac0",
      "function": null,
      "arguments": [
        "0x05E73354cFDd6745C338b50BcFDfA3Aa6fA03408"
      ],
      "transaction": {
        "from": "0x89fedb2167197199fd069122e5351a1c779f91b8",
        "to": "0x4e59b44847b379578588920ca78fbf26c0b4956c",
        "gas": "0x1ec93d",
        "value": "0x0",
        "input": "0x00000000000000000000000000000000000000000000000000000000000063aa60a06040523461007e5761001961001461014f565b610170565b610021610083565b61185e610a4b8239608051818181610aa201528181610be301528181610c8001528181610d2701528181610de001528181610e6801528181610ee001528181610f730152818161101d015281816112da0152611350015261185e90f35b610089565b60405190565b5f80fd5b601f801991011690565b634e487b7160e01b5f52604160045260245ffd5b906100b59061008d565b810190811060018060401b038211176100cd57604052565b610097565b906100e56100de610083565b92836100ab565b565b5f80fd5b60018060a01b031690565b6100ff906100eb565b90565b61010b906100f6565b90565b61011781610102565b0361011e57565b5f80fd5b9050519061012f8261010e565b565b9060208282031261014a57610147915f01610122565b90565b6100e7565b61016d6122a980380380610162816100d2565b928339810190610131565b90565b6101799061017b565b565b608052610187306101c0565b565b90565b6101a061019b6101a5926100eb565b610189565b6100eb565b90565b6101b19061018c565b90565b6101bd906101a8565b90565b6101da906101d56101cf6102d1565b916101b4565b610659565b565b6101e76101c06100d2565b90565b5f90565b602090818080808080808080808080806102066101dc565b9e8f6102106101ea565b81520161021b6101ea565b8152016102266101ea565b8152016102316101ea565b81520161023c6101ea565b8152016102476101ea565b8152016102526101ea565b81520161025d6101ea565b8152016102686101ea565b8152016102736101ea565b81520161027e6101ea565b8152016102896101ea565b8152016102946101ea565b81520161029f6101ea565b81525050565b6102ad6101ee565b90565b6102bb6101c06100d2565b90565b151590565b906102cd906102be565b9052565b6102d96102a5565b505f5f60015f60015f6001805f915f935f955f975f995f9b6102f96102b0565b809e5f820190610308916102c3565b60200190610315916102c3565b60408d0190610323916102c3565b60608c0190610331916102c3565b60808b019061033f916102c3565b60a08a019061034d916102c3565b60c089019061035b916102c3565b60e0880190610369916102c3565b610100870190610378916102c3565b610120860190610387916102c3565b610140850190610396916102c3565b6101608401906103a5916102c3565b6101808301906103b4916102c3565b6101a08201906103c3916102c3565b90565b6103d090516102be565b90565b90565b6103ea6103e56103ef926103d3565b610189565b6100eb565b90565b6103fd6120006103d6565b90565b90565b61041761041261041c92610400565b610189565b6100eb565b90565b61042a611000610403565b90565b90565b61044461043f6104499261042d565b610189565b6100eb565b90565b610457610800610430565b90565b90565b61047161046c6104769261045a565b610189565b6100eb565b90565b61048461040061045d565b90565b90565b61049e6104996104a392610487565b610189565b6100eb565b90565b6104b161020061048a565b90565b90565b6104cb6104c66104d0926104b4565b610189565b6100eb565b90565b6104de6101006104b7565b90565b90565b6104f86104f36104fd926104e1565b610189565b6100eb565b90565b61050a60806104e4565b90565b90565b61052461051f6105299261050d565b610189565b6100eb565b90565b6105366040610510565b90565b90565b61055061054b61055592610539565b610189565b6100eb565b90565b610562602061053c565b90565b90565b61057c61057761058192610565565b610189565b6100eb565b90565b61058e6010610568565b90565b90565b6105a86105a36105ad92610591565b610189565b6100eb565b90565b6105ba6008610594565b90565b90565b6105d46105cf6105d9926105bd565b610189565b6100eb565b90565b6105e660046105c0565b90565b90565b6106006105fb610605926105e9565b610189565b6100eb565b90565b61061260026105ec565b90565b90565b61062c61062761063192610615565b610189565b6100eb565b90565b61063e6001610618565b90565b61064a9061018c565b90565b61065690610641565b90565b906106655f82016103c6565b61068861068261067d856106776103f2565b90610a06565b6102be565b916102be565b141580156109a0575b8015610969575b8015610932575b80156108fb575b80156108c4575b801561088d575b8015610856575b801561081e575b80156107e6575b80156107ae575b8015610776575b801561073e575b908115610705575b506106ee5750565b6106ff630732d7b560e51b9161064d565b90610a38565b61071391506101a0016103c6565b61073661073061072b84610725610634565b90610a06565b6102be565b916102be565b14155f6106e6565b5061074c61018082016103c6565b61076f6107696107648561075e610608565b90610a06565b6102be565b916102be565b14156106de565b5061078461016082016103c6565b6107a76107a161079c856107966105dc565b90610a06565b6102be565b916102be565b14156106d7565b506107bc61014082016103c6565b6107df6107d96107d4856107ce6105b0565b90610a06565b6102be565b916102be565b14156106d0565b506107f461012082016103c6565b61081761081161080c85610806610584565b90610a06565b6102be565b916102be565b14156106c9565b5061082c61010082016103c6565b61084f6108496108448561083e610558565b90610a06565b6102be565b916102be565b14156106c2565b5061086360e082016103c6565b61088661088061087b8561087561052c565b90610a06565b6102be565b916102be565b14156106bb565b5061089a60c082016103c6565b6108bd6108b76108b2856108ac610500565b90610a06565b6102be565b916102be565b14156106b4565b506108d160a082016103c6565b6108f46108ee6108e9856108e36104d3565b90610a06565b6102be565b916102be565b14156106ad565b50610908608082016103c6565b61092b6109256109208561091a6104a6565b90610a06565b6102be565b916102be565b14156106a6565b5061093f606082016103c6565b61096261095c61095785610951610479565b90610a06565b6102be565b916102be565b141561069f565b50610976604082016103c6565b61099961099361098e8561098861044c565b90610a06565b6102be565b916102be565b1415610698565b506109ad602082016103c6565b6109d06109ca6109c5856109bf61041f565b90610a06565b6102be565b916102be565b1415610691565b5f90565b6109e49061018c565b90565b90565b6109fe6109f9610a03926109e7565b610189565b6100eb565b90565b610a1b610a2091610a156109d7565b5061064d565b6109db565b16610a33610a2d5f6109ea565b916100eb565b141590565b5f5260018060a01b031660045260245ffdfe60806040526004361015610013575b610bc5565b61001d5f3561011c565b806321d0ee7014610117578063259982e514610112578063575e24b41461010d5780635c338d32146101085780636c2bbe7e146101035780636fe7e6eb146100fe5780639f063efc146100f9578063b47b2fb1146100f4578063b6a8b0fa146100ef578063c4e833ce146100ea578063c6939957146100e5578063dacdbe77146100e0578063db6a9451146100db578063dc4c90d3146100d6578063dc98354e146100d15763e1b4af690361000e57610ba4565b610b89565b610b1a565b610a6b565b610a1d565b6109cf565b610981565b610822565b610750565b610686565b610668565b6105b4565b6104dc565b6103d0565b6102ac565b610273565b60e01c90565b60405190565b5f80fd5b5f80fd5b5f80fd5b60018060a01b031690565b61014890610134565b90565b6101548161013f565b0361015b57565b5f80fd5b9050359061016c8261014b565b565b5f80fd5b908160a09103126101805790565b61016e565b908160809103126101935790565b61016e565b5f80fd5b5f80fd5b5f80fd5b909182601f830112156101de5781359167ffffffffffffffff83116101d95760200192600183028401116101d457565b6101a0565b61019c565b610198565b9061016082820312610240576101fb815f840161015f565b926102098260208501610172565b926102178360c08301610185565b9261014082013567ffffffffffffffff811161023b5761023792016101a4565b9091565b610130565b61012c565b63ffffffff60e01b1690565b61025a90610245565b9052565b9190610271905f60208501940190610251565b565b346102a7576102a36102926102893660046101e3565b93929092610c57565b61029a610122565b9182918261025e565b0390f35b610128565b346102e0576102dc6102cb6102c23660046101e3565b93929092610cf4565b6102d3610122565b9182918261025e565b0390f35b610128565b908160609103126102f35790565b61016e565b906101408282031261035557610310815f840161015f565b9261031e8260208501610172565b9261032c8360c083016102e5565b9261012082013567ffffffffffffffff81116103505761034c92016101a4565b9091565b610130565b61012c565b90565b90565b61037461036f6103799261035a565b61035d565b61035a565b90565b61038590610360565b9052565b62ffffff1690565b61039a90610389565b9052565b6040906103c76103ce94969593966103bd60608401985f850190610251565b602083019061037c565b0190610391565b565b34610407576104036103ef6103e63660046102f8565b93929092610da5565b6103fa939193610122565b9384938461039e565b0390f35b610128565b90565b6104188161040c565b0361041f57565b5f80fd5b905035906104308261040f565b565b9060208282031261044b57610448915f01610423565b90565b61012c565b6104599061040c565b90565b9061046690610450565b5f5260205260405f2090565b1c90565b90565b61048990600861048e9302610472565b610476565b90565b9061049c9154610479565b90565b6104b4906104af5f915f9261045c565b610491565b90565b90565b6104c3906104b7565b9052565b91906104da905f602085019401906104ba565b565b3461050c576105086104f76104f2366004610432565b61049f565b6104ff610122565b918291826104c7565b0390f35b610128565b61051a8161035a565b0361052157565b5f80fd5b9050359061053282610511565b565b916101a0838303126105af5761054c825f850161015f565b9261055a8360208301610172565b926105688160c08401610185565b92610577826101408501610525565b92610586836101608301610525565b9261018082013567ffffffffffffffff81116105aa576105a692016101a4565b9091565b610130565b61012c565b346105d0576105c4366004610534565b95949094939193610e46565b610128565b6105de81610134565b036105e557565b5f80fd5b905035906105f6826105d5565b565b60020b90565b610607816105f8565b0361060e57565b5f80fd5b9050359061061f826105fe565b565b6101008183031261066357610638825f830161015f565b926106606106498460208501610172565b936106578160c086016105e9565b9360e001610612565b90565b61012c565b3461068157610678366004610621565b92919091610ec7565b610128565b346106a257610696366004610534565b95949094939193610f46565b610128565b91909161016081840312610715576106c1835f830161015f565b926106cf8160208401610172565b926106dd8260c085016102e5565b926106ec836101208301610525565b9261014082013567ffffffffffffffff81116107105761070c92016101a4565b9091565b610130565b61012c565b600f0b90565b6107299061071a565b9052565b91602061074e92949361074760408201965f830190610251565b0190610720565b565b346107885761076f6107633660046106a7565b94939093929192610fee565b9061078461077b610122565b9283928361072d565b0390f35b610128565b610796816104b7565b0361079d57565b5f80fd5b905035906107ae8261078d565b565b9190916101208184031261081d576107ca835f830161015f565b926107d88160208401610172565b926107e68260c085016107a1565b926107f48360e083016107a1565b9261010082013567ffffffffffffffff81116108185761081492016101a4565b9091565b610130565b61012c565b3461083e576108323660046107b0565b94939093929192611080565b610128565b5f91031261084d57565b61012c565b151590565b61086090610852565b9052565b906101a0806109699361087d5f8201515f860190610857565b61088f60208201516020860190610857565b6108a160408201516040860190610857565b6108b360608201516060860190610857565b6108c560808201516080860190610857565b6108d760a082015160a0860190610857565b6108e960c082015160c0860190610857565b6108fb60e082015160e0860190610857565b61090f610100820151610100860190610857565b610923610120820151610120860190610857565b610937610140820151610140860190610857565b61094b610160820151610160860190610857565b61095f610180820151610180860190610857565b0151910190610857565b565b919061097f905f6101c08501940190610864565b565b346109b157610991366004610843565b6109ad61099c6111d9565b6109a4610122565b9182918261096b565b0390f35b610128565b6109cc906109c76002915f9261045c565b610491565b90565b346109ff576109fb6109ea6109e5366004610432565b6109b6565b6109f2610122565b918291826104c7565b0390f35b610128565b610a1a90610a156001915f9261045c565b610491565b90565b34610a4d57610a49610a38610a33366004610432565b610a04565b610a40610122565b918291826104c7565b0390f35b610128565b610a6890610a636003915f9261045c565b610491565b90565b34610a9b57610a97610a86610a81366004610432565b610a52565b610a8e610122565b918291826104c7565b0390f35b610128565b7f000000000000000000000000000000000000000000000000000000000000000090565b610ad8610ad3610add92610134565b61035d565b610134565b90565b610ae990610ac4565b90565b610af590610ae0565b90565b610b0190610aec565b9052565b9190610b18905f60208501940190610af8565b565b34610b4a57610b2a366004610843565b610b46610b35610aa0565b610b3d610122565b91829182610b05565b0390f35b610128565b909160e082840312610b8457610b81610b6a845f850161015f565b93610b788160208601610172565b9360c0016105e9565b90565b61012c565b34610b9f57610b99366004610b4f565b91611337565b610128565b34610bc057610bb43660046107b0565b949390939291926113b3565b610128565b5f80fd5b5f90565b5f0190565b949392919033610c12610c0c610c077f0000000000000000000000000000000000000000000000000000000000000000610aec565b61013f565b9161013f565b03610c2357610c2095610c3f565b90565b5f63570c108560e11b815280610c3b60048201610bcd565b0390fd5b90610c5495939194929450939091929361156c565b90565b90610c6c94939291610c67610bc9565b610bd2565b90565b949392919033610caf610ca9610ca47f0000000000000000000000000000000000000000000000000000000000000000610aec565b61013f565b9161013f565b03610cc057610cbd95610cdc565b90565b5f63570c108560e11b815280610cd860048201610bcd565b0390fd5b90610cf19593919492945093909192936115bd565b90565b90610d0994939291610d04610bc9565b610c6f565b90565b5f90565b5f90565b9695949392919033610d56610d50610d4b7f0000000000000000000000000000000000000000000000000000000000000000610aec565b61013f565b9161013f565b03610d6957610d6497610d85565b909192565b5f63570c108560e11b815280610d8160048201610bcd565b0390fd5b90610d9e97959392919694965050509390919293611655565b9192909190565b90610dcb94939291610db5610bc9565b610dbd610d0c565b610dc5610d10565b91610d14565b909192565b5f90565b33610e0f610e09610e047f0000000000000000000000000000000000000000000000000000000000000000610aec565b61013f565b9161013f565b0315610e31575f63570c108560e11b815280610e2d60048201610bcd565b0390fd5b979695949392975050959091929394956116cc565b610e4e610bc9565b610e56610dd0565b90610dd4565b33610e97610e91610e8c7f0000000000000000000000000000000000000000000000000000000000000000610aec565b61013f565b9161013f565b0315610eb9575f63570c108560e11b815280610eb560048201610bcd565b0390fd5b9392919350929091926116fa565b610ecf610bc9565b610e5c565b33610f0f610f09610f047f0000000000000000000000000000000000000000000000000000000000000000610aec565b61013f565b9161013f565b0315610f31575f63570c108560e11b815280610f2d60048201610bcd565b0390fd5b9796959493929750509590919293949561171f565b610f4e610bc9565b610f56610dd0565b90610ed4565b5f90565b9695949392919033610fa2610f9c610f977f0000000000000000000000000000000000000000000000000000000000000000610aec565b61013f565b9161013f565b03610fb457610fb097610fd0565b9091565b5f63570c108560e11b815280610fcc60048201610bcd565b0390fd5b90610fe8979593969492915050949091929394611769565b91909190565b9061100d9594939291610fff610bc9565b611007610f5c565b90610f60565b9091565b3361104c6110466110417f0000000000000000000000000000000000000000000000000000000000000000610aec565b61013f565b9161013f565b031561106e575f63570c108560e11b81528061106a60048201610bcd565b0390fd5b959493929195509490919293946117ce565b611088610bc9565b611011565b601f801991011690565b634e487b7160e01b5f52604160045260245ffd5b906110b59061108d565b810190811067ffffffffffffffff8211176110cf57604052565b611097565b906110e76110e0610122565b92836110ab565b565b6110f46101c06110d4565b90565b5f90565b602090818080808080808080808080806111136110e9565b9e8f61111d6110f7565b8152016111286110f7565b8152016111336110f7565b81520161113e6110f7565b8152016111496110f7565b8152016111546110f7565b81520161115f6110f7565b81520161116a6110f7565b8152016111756110f7565b8152016111806110f7565b81520161118b6110f7565b8152016111966110f7565b8152016111a16110f7565b8152016111ac6110f7565b81525050565b6111ba6110fb565b90565b6111c86101c06110d4565b90565b906111d590610852565b9052565b6111e16111b2565b505f5f60015f60015f6001805f915f935f955f975f995f9b6112016111bd565b809e5f820190611210916111cb565b6020019061121d916111cb565b60408d019061122b916111cb565b60608c0190611239916111cb565b60808b0190611247916111cb565b60a08a0190611255916111cb565b60c0890190611263916111cb565b60e0880190611271916111cb565b610100870190611280916111cb565b61012086019061128f916111cb565b61014085019061129e916111cb565b6101608401906112ad916111cb565b6101808301906112bc916111cb565b6101a08201906112cb916111cb565b90565b336113096113036112fe7f0000000000000000000000000000000000000000000000000000000000000000610aec565b61013f565b9161013f565b031561132b575f63570c108560e11b81528061132760048201610bcd565b0390fd5b929192509190916117f3565b61133f610bc9565b6112ce565b3361137f6113796113747f0000000000000000000000000000000000000000000000000000000000000000610aec565b61013f565b9161013f565b03156113a1575f63570c108560e11b81528061139d60048201610bcd565b0390fd5b95949392919550949091929394611818565b6113bb610bc9565b611344565b5f80fd5b6113cd8161013f565b036113d457565b5f80fd5b905035906113e5826113c4565b565b6113f081610389565b036113f757565b5f80fd5b90503590611408826113e7565b565b6114139061013f565b90565b61141f8161140a565b0361142657565b5f80fd5b9050359061143782611416565b565b919060a0838203126114a9576114a29061145360a06110d4565b93611460825f83016113d8565b5f86015261147182602083016113d8565b602086015261148382604083016113fb565b60408601526114958260608301610612565b606086015260800161142a565b6080830152565b6113c0565b6114b9903690611439565b90565b5f1c90565b6114cd6114d2916114bc565b610476565b90565b6114df90546114c1565b90565b634e487b7160e01b5f52601160045260245ffd5b6114ff906104b7565b5f19811461150d5760010190565b6114e2565b5f1b90565b906115235f1991611512565b9181191691161790565b61154161153c611546926104b7565b61035d565b6104b7565b90565b90565b9061156161155c6115689261152d565b611549565b8254611517565b9055565b5090506115b2925061159b9150611581610bc9565b506115956115906003926114ae565b611841565b9061045c565b6115ac6115a7826114d5565b6114f6565b9061154c565b63021d0ee760e41b90565b50905061160392506115ec91506115d2610bc9565b506115e66115e16002926114ae565b611841565b9061045c565b6115fd6115f8826114d5565b6114f6565b9061154c565b63259982e560e01b90565b90565b61162561162061162a9261160e565b61035d565b61035a565b90565b6116365f611611565b90565b61164d6116486116529261160e565b61035d565b610389565b90565b5090506116ac9250611695915061166a610bc9565b50611673610d0c565b5061167c610d10565b5061168f61168a5f926114ae565b611841565b9061045c565b6116a66116a1826114d5565b6114f6565b9061154c565b6315d7892d60e21b6116bc61162d565b916116c95f929392611639565b90565b6116d4610bc9565b506116dd610dd0565b505f630a85dc2960e01b8152806116f660048201610bcd565b0390fd5b611702610bc9565b505f630a85dc2960e01b81528061171b60048201610bcd565b0390fd5b611727610bc9565b50611730610dd0565b505f630a85dc2960e01b81528061174960048201610bcd565b0390fd5b61176161175c6117669261160e565b61035d565b61071a565b90565b509150506117b992506117a2915061177f610bc9565b50611788610f5c565b5061179c6117976001926114ae565b611841565b9061045c565b6117b36117ae826114d5565b6114f6565b9061154c565b63b47b2fb160e01b906117cb5f61174d565b90565b6117d6610bc9565b505f630a85dc2960e01b8152806117ef60048201610bcd565b0390fd5b6117fb610bc9565b505f630a85dc2960e01b81528061181460048201610bcd565b0390fd5b611820610bc9565b505f630a85dc2960e01b81528061183960048201610bcd565b0390fd5b5f90565b60a09061184c61183d565b50209056fea164736f6c634300081e000a00000000000000000000000005e73354cfdd6745c338b50bcfdfa3aa6fa03408",
        "nonce": "0x38f",
        "chainId": "0x14a34"
      },
      "additionalContracts": [],
      "isFixedGasLimit": false
    },
    {
      "hash": "0x0834d8510376490f7cc8aeecd0012b127814b44c5b47455fda77e7a1646c18f0",
      "transactionType": "CALL",
      "contractName": null,
      "contractAddress": "0xc2f9a0d977afa1df712abd4aac7c8109e3b17e50",
      "function": "approve(address,uint256)",
      "arguments": [
        "0x000000000022D473030F116dDEE9F6B43aC78BA3",
        "115792089237316195423570985008687907853269984665640564039457584007913129639935"
      ],
      "transaction": {
        "from": "0x89fedb2167197199fd069122e5351a1c779f91b8",
        "to": "0xc2f9a0d977afa1df712abd4aac7c8109e3b17e50",
        "gas": "0x9770",
        "value": "0x0",
        "input": "0x095ea7b3000000000000000000000000000000000022d473030f116ddee9f6b43ac78ba3ffffffffffffffffffffffffffffffffffffffffffffffffffffffffffffffff",
        "nonce": "0x390",
        "chainId": "0x14a34"
      },
      "additionalContracts": [],
      "isFixedGasLimit": false
    },
    {
      "hash": "0x1210c5acd70d8abae5bf6d21caf640a56c75cc68a5c99d032ebc5cd21a724c70",
      "transactionType": "CALL",
      "contractName": null,
      "contractAddress": "0x000000000022d473030f116ddee9f6b43ac78ba3",
      "function": "approve(address,address,uint160,uint48)",
      "arguments": [
        "0xc2f9a0D977Afa1DF712AbD4AAC7C8109E3B17E50",
        "0x4B2C77d209D3405F41a037Ec6c77F7F5b8e2ca80",
        "1461501637330902918203684832716283019655932542975",
        "281474976710655"
      ],
      "transaction": {
        "from": "0x89fedb2167197199fd069122e5351a1c779f91b8",
        "to": "0x000000000022d473030f116ddee9f6b43ac78ba3",
        "gas": "0x96a0",
        "value": "0x0",
        "input": "0x87517c45000000000000000000000000c2f9a0d977afa1df712abd4aac7c8109e3b17e500000000000000000000000004b2c77d209d3405f41a037ec6c77f7f5b8e2ca80000000000000000000000000ffffffffffffffffffffffffffffffffffffffff0000000000000000000000000000000000000000000000000000ffffffffffff",
        "nonce": "0x391",
        "chainId": "0x14a34"
      },
      "additionalContracts": [],
      "isFixedGasLimit": false
    },
    {
      "hash": "0x5b41c36fdc75be34cd8c10d5167dd472a752292187d9fdab944d436fa2f24b55",
      "transactionType": "CALL",
      "contractName": null,
      "contractAddress": "0xfae2680f0542e49cde0dbb055a08ff589615827b",
      "function": "approve(address,uint256)",
      "arguments": [
        "0x000000000022D473030F116dDEE9F6B43aC78BA3",
        "115792089237316195423570985008687907853269984665640564039457584007913129639935"
      ],
      "transaction": {
        "from": "0x89fedb2167197199fd069122e5351a1c779f91b8",
        "to": "0xfae2680f0542e49cde0dbb055a08ff589615827b",
        "gas": "0x9770",
        "value": "0x0",
        "input": "0x095ea7b3000000000000000000000000000000000022d473030f116ddee9f6b43ac78ba3ffffffffffffffffffffffffffffffffffffffffffffffffffffffffffffffff",
        "nonce": "0x392",
        "chainId": "0x14a34"
      },
      "additionalContracts": [],
      "isFixedGasLimit": false
    },
    {
      "hash": "0xffc911e015ddcae9827f580fa014df5be3bdff1cbdbee51e3427256d59554240",
      "transactionType": "CALL",
      "contractName": null,
      "contractAddress": "0x000000000022d473030f116ddee9f6b43ac78ba3",
      "function": "approve(address,address,uint160,uint48)",
      "arguments": [
        "0xfAE2680F0542E49CDE0DBB055a08FF589615827B",
        "0x4B2C77d209D3405F41a037Ec6c77F7F5b8e2ca80",
        "1461501637330902918203684832716283019655932542975",
        "281474976710655"
      ],
      "transaction": {
        "from": "0x89fedb2167197199fd069122e5351a1c779f91b8",
        "to": "0x000000000022d473030f116ddee9f6b43ac78ba3",
        "gas": "0x96a0",
        "value": "0x0",
        "input": "0x87517c45000000000000000000000000fae2680f0542e49cde0dbb055a08ff589615827b0000000000000000000000004b2c77d209d3405f41a037ec6c77f7f5b8e2ca80000000000000000000000000ffffffffffffffffffffffffffffffffffffffff0000000000000000000000000000000000000000000000000000ffffffffffff",
        "nonce": "0x393",
        "chainId": "0x14a34"
      },
      "additionalContracts": [],
      "isFixedGasLimit": false
    },
    {
      "hash": "0x36c5f6cc67455205cdd80a4bb24a317ea4f7c6408949242c5adff168f70b4860",
      "transactionType": "CALL",
      "contractName": null,
      "contractAddress": "0x4b2c77d209d3405f41a037ec6c77f7f5b8e2ca80",
      "function": "multicall(bytes[])",
      "arguments": [
        "[0xf7020405000000000000000000000000c2f9a0d977afa1df712abd4aac7c8109e3b17e50000000000000000000000000fae2680f0542e49cde0dbb055a08ff589615827b0000000000000000000000000000000000000000000000000000000000000bb8000000000000000000000000000000000000000000000000000000000000003c00000000000000000000000038646f6edb13387813c97474ddd79304d49e8ac0000000000000000000000000000000000000000100000000000000000000000000000000000000000000000000000000000000000000000000000000000000e00000000000000000000000000000000000000000000000000000000000000000, 0xdd46508f00000000000000000000000000000000000000000000000000000000000000400000000000000000000000000000000000000000000000000000000069315de40000000000000000000000000000000000000000000000000000000000000400000000000000000000000000000000000000000000000000000000000000004000000000000000000000000000000000000000000000000000000000000000800000000000000000000000000000000000000000000000000000000000000004020d14140000000000000000000000000000000000000000000000000000000000000000000000000000000000000000000000000000000000000000000000040000000000000000000000000000000000000000000000000000000000000080000000000000000000000000000000000000000000000000000000000000024000000000000000000000000000000000000000000000000000000000000002a0000000000000000000000000000000000000000000000000000000000000030000000000000000000000000000000000000000000000000000000000000001a0000000000000000000000000c2f9a0d977afa1df712abd4aac7c8109e3b17e50000000000000000000000000fae2680f0542e49cde0dbb055a08ff589615827b0000000000000000000000000000000000000000000000000000000000000bb8000000000000000000000000000000000000000000000000000000000000003c00000000000000000000000038646f6edb13387813c97474ddd79304d49e8ac0ffffffffffffffffffffffffffffffffffffffffffffffffffffffffffff5038000000000000000000000000000000000000000000000000000000000000afc80000000000000000000000000000000000000000000000060f4da7fe284f5dea0000000000000000000000000000000000000000000000056bc75e2d631000010000000000000000000000000000000000000000000000056bc75e2d6310000100000000000000000000000089fedb2167197199fd069122e5351a1c779f91b8000000000000000000000000000000000000000000000000000000000000018000000000000000000000000000000000000000000000000000000000000000000000000000000000000000000000000000000000000000000000000000000040000000000000000000000000c2f9a0d977afa1df712abd4aac7c8109e3b17e50000000000000000000000000fae2680f0542e49cde0dbb055a08ff589615827b0000000000000000000000000000000000000000000000000000000000000040000000000000000000000000c2f9a0d977afa1df712abd4aac7c8109e3b17e5000000000000000000000000089fedb2167197199fd069122e5351a1c779f91b80000000000000000000000000000000000000000000000000000000000000040000000000000000000000000fae2680f0542e49cde0dbb055a08ff589615827b00000000000000000000000089fedb2167197199fd069122e5351a1c779f91b8]"
      ],
      "transaction": {
        "from": "0x89fedb2167197199fd069122e5351a1c779f91b8",
        "to": "0x4b2c77d209d3405f41a037ec6c77f7f5b8e2ca80",
        "gas": "0xa01fc",
        "value": "0x0",
        "input": "0xac9650d800000000000000000000000000000000000000000000000000000000000000200000000000000000000000000000000000000000000000000000000000000002000000000000000000000000000000000000000000000000000000000000004000000000000000000000000000000000000000000000000000000000000001800000000000000000000000000000000000000000000000000000000000000104f7020405000000000000000000000000c2f9a0d977afa1df712abd4aac7c8109e3b17e50000000000000000000000000fae2680f0542e49cde0dbb055a08ff589615827b0000000000000000000000000000000000000000000000000000000000000bb8000000000000000000000000000000000000000000000000000000000000003c00000000000000000000000038646f6edb13387813c97474ddd79304d49e8ac0000000000000000000000000000000000000000100000000000000000000000000000000000000000000000000000000000000000000000000000000000000e00000000000000000000000000000000000000000000000000000000000000000000000000000000000000000000000000000000000000000000000000000000000000000000000000000000000000000000000000000000000000464dd46508f00000000000000000000000000000000000000000000000000000000000000400000000000000000000000000000000000000000000000000000000069315de40000000000000000000000000000000000000000000000000000000000000400000000000000000000000000000000000000000000000000000000000000004000000000000000000000000000000000000000000000000000000000000000800000000000000000000000000000000000000000000000000000000000000004020d14140000000000000000000000000000000000000000000000000000000000000000000000000000000000000000000000000000000000000000000000040000000000000000000000000000000000000000000000000000000000000080000000000000000000000000000000000000000000000000000000000000024000000000000000000000000000000000000000000000000000000000000002a0000000000000000000000000000000000000000000000000000000000000030000000000000000000000000000000000000000000000000000000000000001a0000000000000000000000000c2f9a0d977afa1df712abd4aac7c8109e3b17e50000000000000000000000000fae2680f0542e49cde0dbb055a08ff589615827b0000000000000000000000000000000000000000000000000000000000000bb8000000000000000000000000000000000000000000000000000000000000003c00000000000000000000000038646f6edb13387813c97474ddd79304d49e8ac0ffffffffffffffffffffffffffffffffffffffffffffffffffffffffffff5038000000000000000000000000000000000000000000000000000000000000afc80000000000000000000000000000000000000000000000060f4da7fe284f5dea0000000000000000000000000000000000000000000000056bc75e2d631000010000000000000000000000000000000000000000000000056bc75e2d6310000100000000000000000000000089fedb2167197199fd069122e5351a1c779f91b8000000000000000000000000000000000000000000000000000000000000018000000000000000000000000000000000000000000000000000000000000000000000000000000000000000000000000000000000000000000000000000000040000000000000000000000000c2f9a0d977afa1df712abd4aac7c8109e3b17e50000000000000000000000000fae2680f0542e49cde0dbb055a08ff589615827b0000000000000000000000000000000000000000000000000000000000000040000000000000000000000000c2f9a0d977afa1df712abd4aac7c8109e3b17e5000000000000000000000000089fedb2167197199fd069122e5351a1c779f91b80000000000000000000000000000000000000000000000000000000000000040000000000000000000000000fae2680f0542e49cde0dbb055a08ff589615827b00000000000000000000000089fedb2167197199fd069122e5351a1c779f91b800000000000000000000000000000000000000000000000000000000",
        "nonce": "0x394",
        "chainId": "0x14a34"
      },
      "additionalContracts": [],
      "isFixedGasLimit": false
    },
    {
      "hash": "0xe6255c3526351c45e0707f69ad7e9a02293192d09529e24538432c5358aad495",
      "transactionType": "CALL",
      "contractName": null,
      "contractAddress": "0x71cd4ea054f9cb3d3bf6251a00673303411a7dd9",
      "function": "swapExactTokensForTokens(uint256,uint256,bool,(address,address,uint24,int24,address),bytes,address,uint256)",
      "arguments": [
        "1000000000000000000",
        "0",
        "true",
        "(0xc2f9a0D977Afa1DF712AbD4AAC7C8109E3B17E50, 0xfAE2680F0542E49CDE0DBB055a08FF589615827B, 3000, 60, 0x38646f6eDB13387813C97474DDd79304D49E8Ac0)",
        "0x",
        "0x89fEdB2167197199Fd069122e5351A1C779F91B8",
        "1764839410"
      ],
      "transaction": {
        "from": "0x89fedb2167197199fd069122e5351a1c779f91b8",
        "to": "0x71cd4ea054f9cb3d3bf6251a00673303411a7dd9",
        "gas": "0x40aed",
        "value": "0x0",
        "input": "0xb1a0d5710000000000000000000000000000000000000000000000000de0b6b3a764000000000000000000000000000000000000000000000000000000000000000000000000000000000000000000000000000000000000000000000000000000000001000000000000000000000000c2f9a0d977afa1df712abd4aac7c8109e3b17e50000000000000000000000000fae2680f0542e49cde0dbb055a08ff589615827b0000000000000000000000000000000000000000000000000000000000000bb8000000000000000000000000000000000000000000000000000000000000003c00000000000000000000000038646f6edb13387813c97474ddd79304d49e8ac0000000000000000000000000000000000000000000000000000000000000016000000000000000000000000089fedb2167197199fd069122e5351a1c779f91b80000000000000000000000000000000000000000000000000000000069314ff20000000000000000000000000000000000000000000000000000000000000000",
        "nonce": "0x395",
        "chainId": "0x14a34"
      },
      "additionalContracts": [],
      "isFixedGasLimit": false
    }
  ],
  "receipts": [
    {
      "status": "0x1",
      "cumulativeGasUsed": "0x9393f8",
      "logs": [],
      "logsBloom": "0x00000000000000000000000000000000000000000000000000000000000000000000000000000000000000000000000000000000000000000000000000000000000000000000000000000000000000000000000000000000000000000000000000000000000000000000000000000000000000000000000000000000000000000000000000000000000000000000000000000000000000000000000000000000000000000000000000000000000000000000000000000000000000000000000000000000000000000000000000000000000000000000000000000000000000000000000000000000000000000000000000000000000000000000000000000000",
      "type": "0x2",
      "transactionHash": "0x0834d8510376490f7cc8aeecd0012b127814b44c5b47455fda77e7a1646c18f0",
      "transactionIndex": "0x19",
      "blockHash": "0x57cae0aaba0c45277612297e94383226ca2563bfe4f1340b4382a8b8a72c8ca7",
      "blockNumber": "0x20ef881",
      "gasUsed": "0x1649e0",
      "effectiveGasPrice": "0x11fbf6",
      "blobGasUsed": "0x16af58",
      "from": "0x89fedb2167197199fd069122e5351a1c779f91b8",
      "to": "0x4e59b44847b379578588920ca78fbf26c0b4956c",
      "contractAddress": null,
      "daFootprintGasScalar": "0x138",
      "l1BaseFeeScalar": "0x44d",
      "l1BlobBaseFee": "0x1",
      "l1BlobBaseFeeScalar": "0xa118b",
      "l1Fee": "0xfe4",
      "l1GasPrice": "0xb",
      "l1GasUsed": "0x129d9"
    },
    {
      "status": "0x1",
      "cumulativeGasUsed": "0x94019c",
      "logs": [
        {
          "address": "0xc2f9a0d977afa1df712abd4aac7c8109e3b17e50",
          "topics": [
            "0x8c5be1e5ebec7d5bd14f71427d1e84f3dd0314c0f7b2291e5b200ac8c7c3b925",
            "0x00000000000000000000000089fedb2167197199fd069122e5351a1c779f91b8",
            "0x000000000000000000000000000000000022d473030f116ddee9f6b43ac78ba3"
          ],
          "data": "0xffffffffffffffffffffffffffffffffffffffffffffffffffffffffffffffff",
          "blockHash": "0x57cae0aaba0c45277612297e94383226ca2563bfe4f1340b4382a8b8a72c8ca7",
          "blockNumber": "0x20ef881",
          "blockTimestamp": "0x69314fe2",
          "transactionHash": "0x5b41c36fdc75be34cd8c10d5167dd472a752292187d9fdab944d436fa2f24b55",
          "transactionIndex": "0x1a",
          "logIndex": "0x99",
          "removed": false
        }
      ],
      "logsBloom": "0x00000000000000000000000000000000000000000000000000400000000000000000000000000000000000000000000000000000800000000080000000200000000000000000000000004000000000000000000000000800000000000000000000000000000000000000000000000800000000000000000000000000000000000000000000000000000000000000000000000000000000000004000000000000020000000000000000000000000000000000000000000800000000000000000000000000000000000000000000002000000000000000000000000000000000000010000000000000000000000000000000000000000000000000000000000000",
      "type": "0x2",
      "transactionHash": "0x5b41c36fdc75be34cd8c10d5167dd472a752292187d9fdab944d436fa2f24b55",
      "transactionIndex": "0x1a",
      "blockHash": "0x57cae0aaba0c45277612297e94383226ca2563bfe4f1340b4382a8b8a72c8ca7",
      "blockNumber": "0x20ef881",
      "gasUsed": "0x6da4",
      "effectiveGasPrice": "0x11fbf6",
      "blobGasUsed": "0x79e0",
      "from": "0x89fedb2167197199fd069122e5351a1c779f91b8",
      "to": "0xc2f9a0d977afa1df712abd4aac7c8109e3b17e50",
      "contractAddress": null,
      "daFootprintGasScalar": "0x138",
      "l1BaseFeeScalar": "0x44d",
      "l1BlobBaseFee": "0x1",
      "l1BlobBaseFeeScalar": "0xa118b",
      "l1Fee": "0x55",
      "l1GasPrice": "0xb",
      "l1GasUsed": "0x640"
    },
    {
      "status": "0x1",
      "cumulativeGasUsed": "0x3aa260",
      "logs": [
        {
          "address": "0x000000000022d473030f116ddee9f6b43ac78ba3",
          "topics": [
            "0xda9fa7c1b00402c17d0161b249b1ab8bbec047c5a52207b9c112deffd817036b",
            "0x00000000000000000000000089fedb2167197199fd069122e5351a1c779f91b8",
            "0x000000000000000000000000c2f9a0d977afa1df712abd4aac7c8109e3b17e50",
            "0x0000000000000000000000004b2c77d209d3405f41a037ec6c77f7f5b8e2ca80"
          ],
          "data": "0x000000000000000000000000ffffffffffffffffffffffffffffffffffffffff0000000000000000000000000000000000000000000000000000ffffffffffff",
          "blockHash": "0x61566be32808c5aedfde14392a712412eee3af4c561b448eb7511a011bdac775",
          "blockNumber": "0x20ef882",
          "blockTimestamp": "0x69314fe4",
          "transactionHash": "0xe6255c3526351c45e0707f69ad7e9a02293192d09529e24538432c5358aad495",
          "transactionIndex": "0x5",
          "logIndex": "0x5",
          "removed": false
        }
      ],
      "logsBloom": "0x00010000000000010000000000000000000000000000000000400000000000000000000400000000000000000000000000000000000000000088000010080000000020000000000000000000000000000000000000000000000000000000000000000000000000000000000000000000000000000000000000000000000000000030000000000000000000000000000000000000000000000004000000000000000000000000000000000000000000000000000000000000000000080000000000000000000000000000000000000000000000000000000040000000000000000000000000000000000000000000000000000000000000000000000000000400",
      "type": "0x2",
      "transactionHash": "0xe6255c3526351c45e0707f69ad7e9a02293192d09529e24538432c5358aad495",
      "transactionIndex": "0x5",
      "blockHash": "0x61566be32808c5aedfde14392a712412eee3af4c561b448eb7511a011bdac775",
      "blockNumber": "0x20ef882",
      "gasUsed": "0x6d0e",
      "effectiveGasPrice": "0x11f6e5",
      "blobGasUsed": "0x89b8",
      "from": "0x89fedb2167197199fd069122e5351a1c779f91b8",
      "to": "0x000000000022d473030f116ddee9f6b43ac78ba3",
      "contractAddress": null,
      "daFootprintGasScalar": "0x138",
      "l1BaseFeeScalar": "0x44d",
      "l1BlobBaseFee": "0x1",
      "l1BlobBaseFeeScalar": "0xa118b",
      "l1Fee": "0x60",
      "l1GasPrice": "0xb",
      "l1GasUsed": "0x710"
    },
    {
      "status": "0x1",
      "cumulativeGasUsed": "0x3b1004",
      "logs": [
        {
          "address": "0xfae2680f0542e49cde0dbb055a08ff589615827b",
          "topics": [
            "0x8c5be1e5ebec7d5bd14f71427d1e84f3dd0314c0f7b2291e5b200ac8c7c3b925",
            "0x00000000000000000000000089fedb2167197199fd069122e5351a1c779f91b8",
            "0x000000000000000000000000000000000022d473030f116ddee9f6b43ac78ba3"
          ],
          "data": "0xffffffffffffffffffffffffffffffffffffffffffffffffffffffffffffffff",
          "blockHash": "0x61566be32808c5aedfde14392a712412eee3af4c561b448eb7511a011bdac775",
          "blockNumber": "0x20ef882",
          "blockTimestamp": "0x69314fe4",
          "transactionHash": "0x1061571e66f02e7ab6bc5abcd78869042f6916f6c9ac5b63635aca947c0dcb84",
          "transactionIndex": "0x6",
          "logIndex": "0x6",
          "removed": false
        }
      ],
      "logsBloom": "0x00000000000000000000000000000000000000000000000000400000004000000000000000000000000000000000000000000000800000000080000000200000000000000000000000004000000000000000000000000800000000000000000000000000000000000000000000000000000000000000000000000000000000000000000000000000000000000000000000000000000000000004000000000000020000000000000000000000000000000000000000000000000000000000000000000000000000000000000020000000000000000000000000000000000000020010000000000000000000000000000000000000000000000000000000000000",
      "type": "0x2",
      "transactionHash": "0x1061571e66f02e7ab6bc5abcd78869042f6916f6c9ac5b63635aca947c0dcb84",
      "transactionIndex": "0x6",
      "blockHash": "0x61566be32808c5aedfde14392a712412eee3af4c561b448eb7511a011bdac775",
      "blockNumber": "0x20ef882",
      "gasUsed": "0x6da4",
      "effectiveGasPrice": "0x11f6e5",
      "blobGasUsed": "0x79e0",
      "from": "0x89fedb2167197199fd069122e5351a1c779f91b8",
      "to": "0xfae2680f0542e49cde0dbb055a08ff589615827b",
      "contractAddress": null,
      "daFootprintGasScalar": "0x138",
      "l1BaseFeeScalar": "0x44d",
      "l1BlobBaseFee": "0x1",
      "l1BlobBaseFeeScalar": "0xa118b",
      "l1Fee": "0x55",
      "l1GasPrice": "0xb",
      "l1GasUsed": "0x640"
    },
    {
      "status": "0x1",
      "cumulativeGasUsed": "0x3b7d12",
      "logs": [
        {
          "address": "0x000000000022d473030f116ddee9f6b43ac78ba3",
          "topics": [
            "0xda9fa7c1b00402c17d0161b249b1ab8bbec047c5a52207b9c112deffd817036b",
            "0x00000000000000000000000089fedb2167197199fd069122e5351a1c779f91b8",
            "0x000000000000000000000000fae2680f0542e49cde0dbb055a08ff589615827b",
            "0x0000000000000000000000004b2c77d209d3405f41a037ec6c77f7f5b8e2ca80"
          ],
          "data": "0x000000000000000000000000ffffffffffffffffffffffffffffffffffffffff0000000000000000000000000000000000000000000000000000ffffffffffff",
          "blockHash": "0x61566be32808c5aedfde14392a712412eee3af4c561b448eb7511a011bdac775",
          "blockNumber": "0x20ef882",
          "blockTimestamp": "0x69314fe4",
          "transactionHash": "0x36c5f6cc67455205cdd80a4bb24a317ea4f7c6408949242c5adff168f70b4860",
          "transactionIndex": "0x7",
          "logIndex": "0x7",
          "removed": false
        }
      ],
      "logsBloom": "0x00010000000000010800000000000000000000000000000000400000000000000000000000000000000000000000000000000000000000000088000010080000000000000000000000000000000000000000100000000000000000000000000000000000000000000020000000000000000000000000000000000000000000000020000000000000000000000000000000000000000000000004000000000000000000000000000000000000000000000000000000000000000000080000000000000000000000000000000000000000000000000000000040000000000000000000000000000000000000000000000000000000000000000000000000000400",
      "type": "0x2",
      "transactionHash": "0x36c5f6cc67455205cdd80a4bb24a317ea4f7c6408949242c5adff168f70b4860",
      "transactionIndex": "0x7",
      "blockHash": "0x61566be32808c5aedfde14392a712412eee3af4c561b448eb7511a011bdac775",
      "blockNumber": "0x20ef882",
      "gasUsed": "0x6d0e",
      "effectiveGasPrice": "0x11f6e5",
      "blobGasUsed": "0x89b8",
      "from": "0x89fedb2167197199fd069122e5351a1c779f91b8",
      "to": "0x000000000022d473030f116ddee9f6b43ac78ba3",
      "contractAddress": null,
      "daFootprintGasScalar": "0x138",
      "l1BaseFeeScalar": "0x44d",
      "l1BlobBaseFee": "0x1",
      "l1BlobBaseFeeScalar": "0xa118b",
      "l1Fee": "0x60",
      "l1GasPrice": "0xb",
      "l1GasUsed": "0x710"
    },
    {
      "status": "0x1",
      "cumulativeGasUsed": "0x42bbe7",
      "logs": [
        {
          "address": "0x05e73354cfdd6745c338b50bcfdfa3aa6fa03408",
          "topics": [
            "0xdd466e674ea557f56295e2d0218a125ea4b4f0f6f3307b95f85e6110838d6438",
            "0x918690570e02579d2b5262e40d5620c6ad880e2ad956dc2720e53e91aa878941",
            "0x000000000000000000000000c2f9a0d977afa1df712abd4aac7c8109e3b17e50",
            "0x000000000000000000000000fae2680f0542e49cde0dbb055a08ff589615827b"
          ],
          "data": "0x0000000000000000000000000000000000000000000000000000000000000bb8000000000000000000000000000000000000000000000000000000000000003c00000000000000000000000038646f6edb13387813c97474ddd79304d49e8ac000000000000000000000000000000000000000010000000000000000000000000000000000000000000000000000000000000000000000000000000000000000",
          "blockHash": "0xf9e6e0f9faa78935ee3829649bf3cb623abc05fcc1671875a3a415e7b75a3b80",
          "blockNumber": "0x20ef882",
          "blockTimestamp": "0x69314fe4",
          "transactionHash": "0x1210c5acd70d8abae5bf6d21caf640a56c75cc68a5c99d032ebc5cd21a724c70",
          "transactionIndex": "0x8",
          "logIndex": "0x8",
          "removed": false
        },
        {
          "address": "0x4b2c77d209d3405f41a037ec6c77f7f5b8e2ca80",
          "topics": [
            "0xddf252ad1be2c89b69c2b068fc378daa952ba7f163c4a11628f55a4df523b3ef",
            "0x0000000000000000000000000000000000000000000000000000000000000000",
            "0x00000000000000000000000089fedb2167197199fd069122e5351a1c779f91b8",
            "0x000000000000000000000000000000000000000000000000000000000000222d"
          ],
          "data": "0x",
          "blockHash": "0xf9e6e0f9faa78935ee3829649bf3cb623abc05fcc1671875a3a415e7b75a3b80",
          "blockNumber": "0x20ef882",
          "blockTimestamp": "0x69314fe4",
          "transactionHash": "0x1210c5acd70d8abae5bf6d21caf640a56c75cc68a5c99d032ebc5cd21a724c70",
          "transactionIndex": "0x8",
          "logIndex": "0x9",
          "removed": false
        },
        {
          "address": "0x05e73354cfdd6745c338b50bcfdfa3aa6fa03408",
          "topics": [
            "0xf208f4912782fd25c7f114ca3723a2d5dd6f3bcc3ac8db5af63baa85f711d5ec",
            "0x918690570e02579d2b5262e40d5620c6ad880e2ad956dc2720e53e91aa878941",
            "0x0000000000000000000000004b2c77d209d3405f41a037ec6c77f7f5b8e2ca80"
          ],
          "data": "0xffffffffffffffffffffffffffffffffffffffffffffffffffffffffffff5038000000000000000000000000000000000000000000000000000000000000afc80000000000000000000000000000000000000000000000060f4da7fe284f5dea000000000000000000000000000000000000000000000000000000000000222d",
          "blockHash": "0xf9e6e0f9faa78935ee3829649bf3cb623abc05fcc1671875a3a415e7b75a3b80",
          "blockNumber": "0x20ef882",
          "blockTimestamp": "0x69314fe4",
          "transactionHash": "0x1210c5acd70d8abae5bf6d21caf640a56c75cc68a5c99d032ebc5cd21a724c70",
          "transactionIndex": "0x8",
          "logIndex": "0xa",
          "removed": false
        },
        {
          "address": "0xc2f9a0d977afa1df712abd4aac7c8109e3b17e50",
          "topics": [
            "0xddf252ad1be2c89b69c2b068fc378daa952ba7f163c4a11628f55a4df523b3ef",
            "0x00000000000000000000000089fedb2167197199fd069122e5351a1c779f91b8",
            "0x00000000000000000000000005e73354cfdd6745c338b50bcfdfa3aa6fa03408"
          ],
          "data": "0x0000000000000000000000000000000000000000000000056bc75e2d63100000",
          "blockHash": "0xf9e6e0f9faa78935ee3829649bf3cb623abc05fcc1671875a3a415e7b75a3b80",
          "blockNumber": "0x20ef882",
          "blockTimestamp": "0x69314fe4",
          "transactionHash": "0x1210c5acd70d8abae5bf6d21caf640a56c75cc68a5c99d032ebc5cd21a724c70",
          "transactionIndex": "0x8",
          "logIndex": "0xb",
          "removed": false
        },
        {
          "address": "0xfae2680f0542e49cde0dbb055a08ff589615827b",
          "topics": [
            "0xddf252ad1be2c89b69c2b068fc378daa952ba7f163c4a11628f55a4df523b3ef",
            "0x00000000000000000000000089fedb2167197199fd069122e5351a1c779f91b8",
            "0x00000000000000000000000005e73354cfdd6745c338b50bcfdfa3aa6fa03408"
          ],
          "data": "0x0000000000000000000000000000000000000000000000056bc75e2d63100000",
          "blockHash": "0xf9e6e0f9faa78935ee3829649bf3cb623abc05fcc1671875a3a415e7b75a3b80",
          "blockNumber": "0x20ef882",
          "blockTimestamp": "0x69314fe4",
          "transactionHash": "0x1210c5acd70d8abae5bf6d21caf640a56c75cc68a5c99d032ebc5cd21a724c70",
          "transactionIndex": "0x8",
          "logIndex": "0xc",
          "removed": false
        }
      ],
      "logsBloom": "0x00000000000000010800000000000000000000000000000000400000004000000100000510000000000000000000004000000000000000000088000010000800000021000010000000000008000000000000100000100000000000008000000000000000020000000020000000040800000000000000000000000010000000000010000005000008000000001000000000000001000000000004000000200000000004000000000000000000000000000000000000000800004000000000000000000002001000000000000020002000000000000000000000000000000020020000000000000000000000000800000004000000000000000000000000000000",
      "type": "0x2",
      "transactionHash": "0x1210c5acd70d8abae5bf6d21caf640a56c75cc68a5c99d032ebc5cd21a724c70",
      "transactionIndex": "0x8",
      "blockHash": "0xf9e6e0f9faa78935ee3829649bf3cb623abc05fcc1671875a3a415e7b75a3b80",
      "blockNumber": "0x20ef882",
      "gasUsed": "0x73ed5",
      "effectiveGasPrice": "0x11f6e5",
      "blobGasUsed": "0x195d8",
      "from": "0x89fedb2167197199fd069122e5351a1c779f91b8",
      "to": "0x4b2c77d209d3405f41a037ec6c77f7f5b8e2ca80",
      "contractAddress": null,
      "daFootprintGasScalar": "0x138",
      "l1BaseFeeScalar": "0x44d",
      "l1BlobBaseFee": "0x1",
      "l1BlobBaseFeeScalar": "0xa118b",
      "l1Fee": "0x11c",
      "l1GasPrice": "0xb",
      "l1GasUsed": "0x14dd"
    },
    {
      "status": "0x1",
      "cumulativeGasUsed": "0x45a92c",
      "logs": [
        {
          "address": "0x05e73354cfdd6745c338b50bcfdfa3aa6fa03408",
          "topics": [
            "0x40e9cecb9f5f1f1c5b9c97dec2917b7ee92e57ba5563708daca94dd84ad7112f",
            "0x918690570e02579d2b5262e40d5620c6ad880e2ad956dc2720e53e91aa878941",
            "0x00000000000000000000000071cd4ea054f9cb3d3bf6251a00673303411a7dd9"
          ],
          "data": "0xfffffffffffffffffffffffffffffffffffffffffffffffff21f494c589c00000000000000000000000000000000000000000000000000000db6be37da38c9470000000000000000000000000000000000000000fdbca5f77c29c153f64eec5b0000000000000000000000000000000000000000000000060f4da7fe284f5deaffffffffffffffffffffffffffffffffffffffffffffffffffffffffffffff4e0000000000000000000000000000000000000000000000000000000000000bb8",
          "blockHash": "0x61566be32808c5aedfde14392a712412eee3af4c561b448eb7511a011bdac775",
          "blockNumber": "0x20ef882",
          "blockTimestamp": "0x69314fe4",
          "transactionHash": "0xffc911e015ddcae9827f580fa014df5be3bdff1cbdbee51e3427256d59554240",
          "transactionIndex": "0x9",
          "logIndex": "0xd",
          "removed": false
        },
        {
          "address": "0xc2f9a0d977afa1df712abd4aac7c8109e3b17e50",
          "topics": [
            "0xddf252ad1be2c89b69c2b068fc378daa952ba7f163c4a11628f55a4df523b3ef",
            "0x00000000000000000000000089fedb2167197199fd069122e5351a1c779f91b8",
            "0x00000000000000000000000005e73354cfdd6745c338b50bcfdfa3aa6fa03408"
          ],
          "data": "0x0000000000000000000000000000000000000000000000000de0b6b3a7640000",
          "blockHash": "0x61566be32808c5aedfde14392a712412eee3af4c561b448eb7511a011bdac775",
          "blockNumber": "0x20ef882",
          "blockTimestamp": "0x69314fe4",
          "transactionHash": "0xffc911e015ddcae9827f580fa014df5be3bdff1cbdbee51e3427256d59554240",
          "transactionIndex": "0x9",
          "logIndex": "0xe",
          "removed": false
        },
        {
          "address": "0xfae2680f0542e49cde0dbb055a08ff589615827b",
          "topics": [
            "0xddf252ad1be2c89b69c2b068fc378daa952ba7f163c4a11628f55a4df523b3ef",
            "0x00000000000000000000000005e73354cfdd6745c338b50bcfdfa3aa6fa03408",
            "0x00000000000000000000000089fedb2167197199fd069122e5351a1c779f91b8"
          ],
          "data": "0x0000000000000000000000000000000000000000000000000db6be37da38c947",
          "blockHash": "0x61566be32808c5aedfde14392a712412eee3af4c561b448eb7511a011bdac775",
          "blockNumber": "0x20ef882",
          "blockTimestamp": "0x69314fe4",
          "transactionHash": "0xffc911e015ddcae9827f580fa014df5be3bdff1cbdbee51e3427256d59554240",
          "transactionIndex": "0x9",
          "logIndex": "0xf",
          "removed": false
        }
      ],
      "logsBloom": "0x00000000000000000000000000000000000000000000000000400000004000000000000110000000000000000000000000000000040000000080000000000000000000000010000000000008000000000000000000100020000000000000000000000000000000000000000000040800000000000000000000000010000000000000000004000000000000000000000000000000000000000004000000000000000000000000000000000000000000000000000000002800004000000000000000000002001000000000020020002000000000000000000000000000000000020000000000000000004000000800000000000000000000000000000000000000",
      "type": "0x2",
      "transactionHash": "0xffc911e015ddcae9827f580fa014df5be3bdff1cbdbee51e3427256d59554240",
      "transactionIndex": "0x9",
      "blockHash": "0x61566be32808c5aedfde14392a712412eee3af4c561b448eb7511a011bdac775",
      "blockNumber": "0x20ef882",
      "gasUsed": "0x2ed45",
      "effectiveGasPrice": "0x11f6e5",
      "blobGasUsed": "0xe790",
      "from": "0x89fedb2167197199fd069122e5351a1c779f91b8",
      "to": "0x71cd4ea054f9cb3d3bf6251a00673303411a7dd9",
      "contractAddress": null,
      "daFootprintGasScalar": "0x138",
      "l1BaseFeeScalar": "0x44d",
      "l1BlobBaseFee": "0x1",
      "l1BlobBaseFeeScalar": "0xa118b",
      "l1Fee": "0xa2",
      "l1GasPrice": "0xb",
      "l1GasUsed": "0xbec"
    }
  ],
  "libraries": [],
  "pending": [],
  "returns": {},
  "timestamp": 1764839396148,
  "chain": 84532,
  "commit": "7025c08"
}