{
  "transactions": [
    {
      "hash": "0xf08e277797d23d77d40451896bc6301772c7e3f40253f527a291c989df5fbb44",
      "transactionType": "CALL",
      "contractName": null,
      "contractAddress": "0xfae2680f0542e49cde0dbb055a08ff589615827b",
      "function": "approve(address,uint256)",
      "arguments": [
        "0x71cD4Ea054F9Cb3D3BF6251A00673303411A7DD9",
        "1000000000000000000"
      ],
      "transaction": {
        "from": "0x89fedb2167197199fd069122e5351a1c779f91b8",
        "to": "0xfae2680f0542e49cde0dbb055a08ff589615827b",
        "gas": "0x10162",
        "value": "0x0",
        "input": "0x095ea7b300000000000000000000000071cd4ea054f9cb3d3bf6251a00673303411a7dd90000000000000000000000000000000000000000000000000de0b6b3a7640000",
        "nonce": "0x3be",
        "chainId": "0x14a34"
      },
      "additionalContracts": [],
      "isFixedGasLimit": false
    },
    {
      "hash": "0xe06995fac903a24f29b8610d238bcf4febdc695ce457e009eff02eea7e020667",
      "transactionType": "CALL",
      "contractName": null,
      "contractAddress": "0x71cd4ea054f9cb3d3bf6251a00673303411a7dd9",
      "function": "swapExactTokensForTokens(uint256,uint256,bool,(address,address,uint24,int24,address),bytes,address,uint256)",
      "arguments": [
        "1000000000000000000",
        "0",
        "false",
        "(0xc2f9a0D977Afa1DF712AbD4AAC7C8109E3B17E50, 0xfAE2680F0542E49CDE0DBB055a08FF589615827B, 3000, 60, 0x9DA30fac28d688C6e9536BF74c6488947D774fC0)",
        "0x",
        "0x89fEdB2167197199Fd069122e5351A1C779F91B8",
        "1764843168"
      ],
      "transaction": {
        "from": "0x89fedb2167197199fd069122e5351a1c779f91b8",
        "to": "0x71cd4ea054f9cb3d3bf6251a00673303411a7dd9",
        "gas": "0x3c2b4",
        "value": "0x0",
        "input": "0xb1a0d5710000000000000000000000000000000000000000000000000de0b6b3a764000000000000000000000000000000000000000000000000000000000000000000000000000000000000000000000000000000000000000000000000000000000000000000000000000000000000c2f9a0d977afa1df712abd4aac7c8109e3b17e50000000000000000000000000fae2680f0542e49cde0dbb055a08ff589615827b0000000000000000000000000000000000000000000000000000000000000bb8000000000000000000000000000000000000000000000000000000000000003c0000000000000000000000009da30fac28d688c6e9536bf74c6488947d774fc0000000000000000000000000000000000000000000000000000000000000016000000000000000000000000089fedb2167197199fd069122e5351a1c779f91b80000000000000000000000000000000000000000000000000000000069315ea00000000000000000000000000000000000000000000000000000000000000000",
        "nonce": "0x3bf",
        "chainId": "0x14a34"
      },
      "additionalContracts": [],
      "isFixedGasLimit": false
    }
  ],
  "receipts": [
    {
      "status": "0x1",
      "cumulativeGasUsed": "0xacdcc0",
      "logs": [
        {
          "address": "0xfae2680f0542e49cde0dbb055a08ff589615827b",
          "topics": [
            "0x8c5be1e5ebec7d5bd14f71427d1e84f3dd0314c0f7b2291e5b200ac8c7c3b925",
            "0x00000000000000000000000089fedb2167197199fd069122e5351a1c779f91b8",
            "0x00000000000000000000000071cd4ea054f9cb3d3bf6251a00673303411a7dd9"
          ],
          "data": "0x0000000000000000000000000000000000000000000000000de0b6b3a7640000",
          "blockHash": "0xe443765135722857fbebb448ea662087b51d2e0809893030000a3ba9f050c2d0",
          "blockNumber": "0x20effd7",
          "blockTimestamp": "0x69315e8e",
          "transactionHash": "0xe06995fac903a24f29b8610d238bcf4febdc695ce457e009eff02eea7e020667",
          "transactionIndex": "0xd",
          "logIndex": "0x1e",
          "removed": false
        }
      ],
      "logsBloom": "0x00000000000000000000000000000000000000000000000000400000004000000000000000000000000000000000000000000000000000000080000000200000000000000000000000000000000000000000000000000000000000000000000000000000000000000000000000000000000000000000000000000000000000000000000000000000000000000000000000000000000000000004000000000000020000000000000000000000000000000000000000002000004000000000000000000000000000000000020020000000000000000000000000000000000000020010000000000000000000000000000000000000000000000000000000000000",
      "type": "0x2",
      "transactionHash": "0xe06995fac903a24f29b8610d238bcf4febdc695ce457e009eff02eea7e020667",
      "transactionIndex": "0xd",
      "blockHash": "0xe443765135722857fbebb448ea662087b51d2e0809893030000a3ba9f050c2d0",
      "blockNumber": "0x20effd7",
      "gasUsed": "0xba58",
      "effectiveGasPrice": "0x124f80",
      "blobGasUsed": "0x79e0",
      "from": "0x89fedb2167197199fd069122e5351a1c779f91b8",
      "to": "0xfae2680f0542e49cde0dbb055a08ff589615827b",
      "contractAddress": null,
      "daFootprintGasScalar": "0x138",
      "l1BaseFeeScalar": "0x44d",
      "l1BlobBaseFee": "0x27",
      "l1BlobBaseFeeScalar": "0xa118b",
      "l1Fee": "0xa1d",
      "l1GasPrice": "0x9",
      "l1GasUsed": "0x640"
    },
    {
      "status": "0x1",
      "cumulativeGasUsed": "0x38e0e",
      "logs": [
        {
          "address": "0x05e73354cfdd6745c338b50bcfdfa3aa6fa03408",
          "topics": [
            "0x40e9cecb9f5f1f1c5b9c97dec2917b7ee92e57ba5563708daca94dd84ad7112f",
            "0x1ccf78191fbe34987e408abb12c30ef49515e34bc30e00314cc0a4e2de8fbca9",
            "0x00000000000000000000000071cd4ea054f9cb3d3bf6251a00673303411a7dd9"
          ],
          "data": "0x0000000000000000000000000000000000000000000000000d7937300c7393c5fffffffffffffffffffffffffffffffffffffffffffffffff21f494c589c00000000000000000000000000000000000000000001049109b520a14fa4ef8adfec0000000000000000000000000000000000000000000000060f4da7fe284f5dea00000000000000000000000000000000000000000000000000000000000001610000000000000000000000000000000000000000000000000000000000000bb8",
          "blockHash": "0x335023bb4f6791a5b2b99c7199c13ed3956248c316b656264b47f53794a5dc57",
          "blockNumber": "0x20effd8",
          "blockTimestamp": "0x69315e90",
          "transactionHash": "0xf08e277797d23d77d40451896bc6301772c7e3f40253f527a291c989df5fbb44",
          "transactionIndex": "0x1",
          "logIndex": "0x0",
          "removed": false
        },
        {
          "address": "0xfae2680f0542e49cde0dbb055a08ff589615827b",
          "topics": [
            "0xddf252ad1be2c89b69c2b068fc378daa952ba7f163c4a11628f55a4df523b3ef",
            "0x00000000000000000000000089fedb2167197199fd069122e5351a1c779f91b8",
            "0x00000000000000000000000005e73354cfdd6745c338b50bcfdfa3aa6fa03408"
          ],
          "data": "0x0000000000000000000000000000000000000000000000000de0b6b3a7640000",
          "blockHash": "0x335023bb4f6791a5b2b99c7199c13ed3956248c316b656264b47f53794a5dc57",
          "blockNumber": "0x20effd8",
          "blockTimestamp": "0x69315e90",
          "transactionHash": "0xf08e277797d23d77d40451896bc6301772c7e3f40253f527a291c989df5fbb44",
          "transactionIndex": "0x1",
          "logIndex": "0x1",
          "removed": false
        },
        {
          "address": "0xc2f9a0d977afa1df712abd4aac7c8109e3b17e50",
          "topics": [
            "0xddf252ad1be2c89b69c2b068fc378daa952ba7f163c4a11628f55a4df523b3ef",
            "0x00000000000000000000000005e73354cfdd6745c338b50bcfdfa3aa6fa03408",
            "0x00000000000000000000000089fedb2167197199fd069122e5351a1c779f91b8"
          ],
          "data": "0x0000000000000000000000000000000000000000000000000d7937300c7393c5",
          "blockHash": "0x335023bb4f6791a5b2b99c7199c13ed3956248c316b656264b47f53794a5dc57",
          "blockNumber": "0x20effd8",
          "blockTimestamp": "0x69315e90",
          "transactionHash": "0xf08e277797d23d77d40451896bc6301772c7e3f40253f527a291c989df5fbb44",
          "transactionIndex": "0x1",
          "logIndex": "0x2",
          "removed": false
        }
      ],
      "logsBloom": "0x00000000000000000000000000000000000000000000000000400000004000000000000100000000000000000000000000000000040000000080000000000000000000000010000000000008000000000000000000100020000000000000000000000000000000000000000000000820000000000000000000000010000000000000000004000000000800000000000000000000000000000004000000000000000000000000000000000000000000000000000000002800004000000000000000000002001000000000020020002000000000000000000000000000000000020000000000000000004000200800000000000000000000000000000000000000",
      "type": "0x2",
      "transactionHash": "0xf08e277797d23d77d40451896bc6301772c7e3f40253f527a291c989df5fbb44",
      "transactionIndex": "0x1",
      "blockHash": "0x335023bb4f6791a5b2b99c7199c13ed3956248c316b656264b47f53794a5dc57",
      "blockNumber": "0x20effd8",
      "gasUsed": "0x2b8fc",
      "effectiveGasPrice": "0x124f80",
      "blobGasUsed": "0xe2b0",
      "from": "0x89fedb2167197199fd069122e5351a1c779f91b8",
      "to": "0x71cd4ea054f9cb3d3bf6251a00673303411a7dd9",
      "contractAddress": null,
      "daFootprintGasScalar": "0x138",
      "l1BaseFeeScalar": "0x44d",
      "l1BlobBaseFee": "0x28",
      "l1BlobBaseFeeScalar": "0xa118b",
      "l1Fee": "0x135b",
      "l1GasPrice": "0x9",
      "l1GasUsed": "0xba9"
    }
  ],
  "libraries": [],
  "pending": [],
  "returns": {},
  "timestamp": 1764843151786,
  "chain": 84532,
  "commit": "7025c08"
}