{
  "transactions": [
    {
      "hash": "0x9cb5896b975ab7365171f27f6583d8289b5ebec0963d3c86ebe3b91d72e49da3",
      "transactionType": "CALL",
      "contractName": null,
      "contractAddress": "0xc2f9a0d977afa1df712abd4aac7c8109e3b17e50",
      "function": "approve(address,uint256)",
      "arguments": [
        "0x000000000022D473030F116dDEE9F6B43aC78BA3",
        "115792089237316195423570985008687907853269984665640564039457584007913129639935"
      ],
      "transaction": {
        "from": "0x89fedb2167197199fd069122e5351a1c779f91b8",
        "to": "0xc2f9a0d977afa1df712abd4aac7c8109e3b17e50",
        "gas": "0x9770",
        "value": "0x0",
        "input": "0x095ea7b3000000000000000000000000000000000022d473030f116ddee9f6b43ac78ba3ffffffffffffffffffffffffffffffffffffffffffffffffffffffffffffffff",
        "nonce": "0x3b3",
        "chainId": "0x14a34"
      },
      "additionalContracts": [],
      "isFixedGasLimit": false
    },
    {
      "hash": "0xd71da6b55c9fdb7e73d9d82549ec9a2de4d7e7c46a2bf7c807b9077c1359e458",
      "transactionType": "CALL",
      "contractName": null,
      "contractAddress": "0x000000000022d473030f116ddee9f6b43ac78ba3",
      "function": "approve(address,address,uint160,uint48)",
      "arguments": [
        "0xc2f9a0D977Afa1DF712AbD4AAC7C8109E3B17E50",
        "0x4B2C77d209D3405F41a037Ec6c77F7F5b8e2ca80",
        "1461501637330902918203684832716283019655932542975",
        "281474976710655"
      ],
      "transaction": {
        "from": "0x89fedb2167197199fd069122e5351a1c779f91b8",
        "to": "0x000000000022d473030f116ddee9f6b43ac78ba3",
        "gas": "0x96a0",
        "value": "0x0",
        "input": "0x87517c45000000000000000000000000c2f9a0d977afa1df712abd4aac7c8109e3b17e500000000000000000000000004b2c77d209d3405f41a037ec6c77f7f5b8e2ca80000000000000000000000000ffffffffffffffffffffffffffffffffffffffff0000000000000000000000000000000000000000000000000000ffffffffffff",
        "nonce": "0x3b4",
        "chainId": "0x14a34"
      },
      "additionalContracts": [],
      "isFixedGasLimit": false
    },
    {
      "hash": "0x1720431f045e3fca24dba6b1c360c8f85fa4589bf1a21e8bc61bfe149946291e",
      "transactionType": "CALL",
      "contractName": null,
      "contractAddress": "0xfae2680f0542e49cde0dbb055a08ff589615827b",
      "function": "approve(address,uint256)",
      "arguments": [
        "0x000000000022D473030F116dDEE9F6B43aC78BA3",
        "115792089237316195423570985008687907853269984665640564039457584007913129639935"
      ],
      "transaction": {
        "from": "0x89fedb2167197199fd069122e5351a1c779f91b8",
        "to": "0xfae2680f0542e49cde0dbb055a08ff589615827b",
        "gas": "0x9770",
        "value": "0x0",
        "input": "0x095ea7b3000000000000000000000000000000000022d473030f116ddee9f6b43ac78ba3ffffffffffffffffffffffffffffffffffffffffffffffffffffffffffffffff",
        "nonce": "0x3b5",
        "chainId": "0x14a34"
      },
      "additionalContracts": [],
      "isFixedGasLimit": false
    },
    {
      "hash": "0x09c96be68c32f0807144b8c3b77637ab0a6b31784934de7e7ff288e97860671f",
      "transactionType": "CALL",
      "contractName": null,
      "contractAddress": "0x000000000022d473030f116ddee9f6b43ac78ba3",
      "function": "approve(address,address,uint160,uint48)",
      "arguments": [
        "0xfAE2680F0542E49CDE0DBB055a08FF589615827B",
        "0x4B2C77d209D3405F41a037Ec6c77F7F5b8e2ca80",
        "1461501637330902918203684832716283019655932542975",
        "281474976710655"
      ],
      "transaction": {
        "from": "0x89fedb2167197199fd069122e5351a1c779f91b8",
        "to": "0x000000000022d473030f116ddee9f6b43ac78ba3",
        "gas": "0x96a0",
        "value": "0x0",
        "input": "0x87517c45000000000000000000000000fae2680f0542e49cde0dbb055a08ff589615827b0000000000000000000000004b2c77d209d3405f41a037ec6c77f7f5b8e2ca80000000000000000000000000ffffffffffffffffffffffffffffffffffffffff0000000000000000000000000000000000000000000000000000ffffffffffff",
        "nonce": "0x3b6",
        "chainId": "0x14a34"
      },
      "additionalContracts": [],
      "isFixedGasLimit": false
    },
    {
      "hash": "0xb10f4ac48dcc6f66d10eeca804fd7d2905f3d6516298b64a2fa8cc960e312f8f",
      "transactionType": "CALL",
      "contractName": null,
      "contractAddress": "0x4b2c77d209d3405f41a037ec6c77f7f5b8e2ca80",
      "function": "multicall(bytes[])",
      "arguments": [
        "[0xf7020405000000000000000000000000c2f9a0d977afa1df712abd4aac7c8109e3b17e50000000000000000000000000fae2680f0542e49cde0dbb055a08ff589615827b0000000000000000000000000000000000000000000000000000000000000bb8000000000000000000000000000000000000000000000000000000000000003c0000000000000000000000009da30fac28d688c6e9536bf74c6488947d774fc0000000000000000000000000000000000000000100000000000000000000000000000000000000000000000000000000000000000000000000000000000000e00000000000000000000000000000000000000000000000000000000000000000, 0xdd46508f00000000000000000000000000000000000000000000000000000000000000400000000000000000000000000000000000000000000000000000000069316be20000000000000000000000000000000000000000000000000000000000000400000000000000000000000000000000000000000000000000000000000000004000000000000000000000000000000000000000000000000000000000000000800000000000000000000000000000000000000000000000000000000000000004020d14140000000000000000000000000000000000000000000000000000000000000000000000000000000000000000000000000000000000000000000000040000000000000000000000000000000000000000000000000000000000000080000000000000000000000000000000000000000000000000000000000000024000000000000000000000000000000000000000000000000000000000000002a0000000000000000000000000000000000000000000000000000000000000030000000000000000000000000000000000000000000000000000000000000001a0000000000000000000000000c2f9a0d977afa1df712abd4aac7c8109e3b17e50000000000000000000000000fae2680f0542e49cde0dbb055a08ff589615827b0000000000000000000000000000000000000000000000000000000000000bb8000000000000000000000000000000000000000000000000000000000000003c0000000000000000000000009da30fac28d688c6e9536bf74c6488947d774fc0ffffffffffffffffffffffffffffffffffffffffffffffffffffffffffff5038000000000000000000000000000000000000000000000000000000000000afc80000000000000000000000000000000000000000000000060f4da7fe284f5dea0000000000000000000000000000000000000000000000056bc75e2d631000010000000000000000000000000000000000000000000000056bc75e2d6310000100000000000000000000000089fedb2167197199fd069122e5351a1c779f91b8000000000000000000000000000000000000000000000000000000000000018000000000000000000000000000000000000000000000000000000000000000000000000000000000000000000000000000000000000000000000000000000040000000000000000000000000c2f9a0d977afa1df712abd4aac7c8109e3b17e50000000000000000000000000fae2680f0542e49cde0dbb055a08ff589615827b0000000000000000000000000000000000000000000000000000000000000040000000000000000000000000c2f9a0d977afa1df712abd4aac7c8109e3b17e5000000000000000000000000089fedb2167197199fd069122e5351a1c779f91b80000000000000000000000000000000000000000000000000000000000000040000000000000000000000000fae2680f0542e49cde0dbb055a08ff589615827b00000000000000000000000089fedb2167197199fd069122e5351a1c779f91b8]"
      ],
      "transaction": {
        "from": "0x89fedb2167197199fd069122e5351a1c779f91b8",
        "to": "0x4b2c77d209d3405f41a037ec6c77f7f5b8e2ca80",
        "gas": "0xa2ab4",
        "value": "0x0",
        "input": "0xac9650d800000000000000000000000000000000000000000000000000000000000000200000000000000000000000000000000000000000000000000000000000000002000000000000000000000000000000000000000000000000000000000000004000000000000000000000000000000000000000000000000000000000000001800000000000000000000000000000000000000000000000000000000000000104f7020405000000000000000000000000c2f9a0d977afa1df712abd4aac7c8109e3b17e50000000000000000000000000fae2680f0542e49cde0dbb055a08ff589615827b0000000000000000000000000000000000000000000000000000000000000bb8000000000000000000000000000000000000000000000000000000000000003c0000000000000000000000009da30fac28d688c6e9536bf74c6488947d774fc0000000000000000000000000000000000000000100000000000000000000000000000000000000000000000000000000000000000000000000000000000000e00000000000000000000000000000000000000000000000000000000000000000000000000000000000000000000000000000000000000000000000000000000000000000000000000000000000000000000000000000000000000464dd46508f00000000000000000000000000000000000000000000000000000000000000400000000000000000000000000000000000000000000000000000000069316be20000000000000000000000000000000000000000000000000000000000000400000000000000000000000000000000000000000000000000000000000000004000000000000000000000000000000000000000000000000000000000000000800000000000000000000000000000000000000000000000000000000000000004020d14140000000000000000000000000000000000000000000000000000000000000000000000000000000000000000000000000000000000000000000000040000000000000000000000000000000000000000000000000000000000000080000000000000000000000000000000000000000000000000000000000000024000000000000000000000000000000000000000000000000000000000000002a0000000000000000000000000000000000000000000000000000000000000030000000000000000000000000000000000000000000000000000000000000001a0000000000000000000000000c2f9a0d977afa1df712abd4aac7c8109e3b17e50000000000000000000000000fae2680f0542e49cde0dbb055a08ff589615827b0000000000000000000000000000000000000000000000000000000000000bb8000000000000000000000000000000000000000000000000000000000000003c0000000000000000000000009da30fac28d688c6e9536bf74c6488947d774fc0ffffffffffffffffffffffffffffffffffffffffffffffffffffffffffff5038000000000000000000000000000000000000000000000000000000000000afc80000000000000000000000000000000000000000000000060f4da7fe284f5dea0000000000000000000000000000000000000000000000056bc75e2d631000010000000000000000000000000000000000000000000000056bc75e2d6310000100000000000000000000000089fedb2167197199fd069122e5351a1c779f91b8000000000000000000000000000000000000000000000000000000000000018000000000000000000000000000000000000000000000000000000000000000000000000000000000000000000000000000000000000000000000000000000040000000000000000000000000c2f9a0d977afa1df712abd4aac7c8109e3b17e50000000000000000000000000fae2680f0542e49cde0dbb055a08ff589615827b0000000000000000000000000000000000000000000000000000000000000040000000000000000000000000c2f9a0d977afa1df712abd4aac7c8109e3b17e5000000000000000000000000089fedb2167197199fd069122e5351a1c779f91b80000000000000000000000000000000000000000000000000000000000000040000000000000000000000000fae2680f0542e49cde0dbb055a08ff589615827b00000000000000000000000089fedb2167197199fd069122e5351a1c779f91b800000000000000000000000000000000000000000000000000000000",
        "nonce": "0x3b7",
        "chainId": "0x14a34"
      },
      "additionalContracts": [],
      "isFixedGasLimit": false
    },
    {
      "hash": "0x7883f526b156fedffb6847390267a338c918661f9252a9f635969e37429bfbf9",
      "transactionType": "CALL",
      "contractName": null,
      "contractAddress": "0x3c3b029bd75bb4203a13c677221cd699aeafb444",
      "function": "createVault(bytes32,address,uint8,bytes)",
      "arguments": [
        "0x1ccf78191fbe34987e408abb12c30ef49515e34bc30e00314cc0a4e2de8fbca9",
        "0x38222dcAD2244Aa6642A445e038eE7723161Ef91",
        "0",
        "0x"
      ],
      "transaction": {
        "from": "0x89fedb2167197199fd069122e5351a1c779f91b8",
        "to": "0x3c3b029bd75bb4203a13c677221cd699aeafb444",
        "gas": "0x31c3d",
        "value": "0x0",
        "input": "0xc72c1e981ccf78191fbe34987e408abb12c30ef49515e34bc30e00314cc0a4e2de8fbca900000000000000000000000038222dcad2244aa6642a445e038ee7723161ef91000000000000000000000000000000000000000000000000000000000000000000000000000000000000000000000000000000000000000000000000000000800000000000000000000000000000000000000000000000000000000000000000",
        "nonce": "0x3b8",
        "chainId": "0x14a34"
      },
      "additionalContracts": [],
      "isFixedGasLimit": false
    },
    {
      "hash": "0x1cc9c14d341aff96e75435ce62f35ba9cb3ad53c789ece8ff9fbbe5763788aa2",
      "transactionType": "CALL",
      "contractName": null,
      "contractAddress": "0x3c3b029bd75bb4203a13c677221cd699aeafb444",
      "function": "configureDCA(uint256,uint256,uint256,address,address)",
      "arguments": [
        "0",
        "100",
        "1000000000000000000",
        "0xc2f9a0D977Afa1DF712AbD4AAC7C8109E3B17E50",
        "0xfAE2680F0542E49CDE0DBB055a08FF589615827B"
      ],
      "transaction": {
        "from": "0x89fedb2167197199fd069122e5351a1c779f91b8",
        "to": "0x3c3b029bd75bb4203a13c677221cd699aeafb444",
        "gas": "0x289e0",
        "value": "0x0",
        "input": "0xfcd650e5000000000000000000000000000000000000000000000000000000000000000000000000000000000000000000000000000000000000000000000000000000640000000000000000000000000000000000000000000000000de0b6b3a7640000000000000000000000000000c2f9a0d977afa1df712abd4aac7c8109e3b17e50000000000000000000000000fae2680f0542e49cde0dbb055a08ff589615827b",
        "nonce": "0x3b9",
        "chainId": "0x14a34"
      },
      "additionalContracts": [],
      "isFixedGasLimit": false
    },
    {
      "hash": "0x56711a437a0b6cd1ab07c67166925194cf20d81852ee7da9994c1a4fc757ecc1",
      "transactionType": "CALL",
      "contractName": null,
      "contractAddress": "0xc2f9a0d977afa1df712abd4aac7c8109e3b17e50",
      "function": "approve(address,uint256)",
      "arguments": [
        "0x3C3B029Bd75bB4203A13C677221cd699AeaFB444",
        "10000000000000000000"
      ],
      "transaction": {
        "from": "0x89fedb2167197199fd069122e5351a1c779f91b8",
        "to": "0xc2f9a0d977afa1df712abd4aac7c8109e3b17e50",
        "gas": "0x10173",
        "value": "0x0",
        "input": "0x095ea7b30000000000000000000000003c3b029bd75bb4203a13c677221cd699aeafb4440000000000000000000000000000000000000000000000008ac7230489e80000",
        "nonce": "0x3ba",
        "chainId": "0x14a34"
      },
      "additionalContracts": [],
      "isFixedGasLimit": false
    },
    {
      "hash": "0x45738ed19e766de1dbda181b3192c3a98dd4200f51b15d22680fd92ed255589d",
      "transactionType": "CALL",
      "contractName": null,
      "contractAddress": "0x3c3b029bd75bb4203a13c677221cd699aeafb444",
      "function": "deposit(uint256,address,uint256)",
      "arguments": [
        "0",
        "0xc2f9a0D977Afa1DF712AbD4AAC7C8109E3B17E50",
        "10000000000000000000"
      ],
      "transaction": {
        "from": "0x89fedb2167197199fd069122e5351a1c779f91b8",
        "to": "0x3c3b029bd75bb4203a13c677221cd699aeafb444",
        "gas": "0x31b49",
        "value": "0x0",
        "input": "0xbc157ac10000000000000000000000000000000000000000000000000000000000000000000000000000000000000000c2f9a0d977afa1df712abd4aac7c8109e3b17e500000000000000000000000000000000000000000000000008ac7230489e80000",
        "nonce": "0x3bb",
        "chainId": "0x14a34"
      },
      "additionalContracts": [],
      "isFixedGasLimit": false
    },
    {
      "hash": "0xcf24bd3b88830bdc1d85d8ed3eb652f1072285cdcaeca01a845b1a77ba94ffc3",
      "transactionType": "CALL",
      "contractName": null,
      "contractAddress": "0xfae2680f0542e49cde0dbb055a08ff589615827b",
      "function": "approve(address,uint256)",
      "arguments": [
        "0x71cD4Ea054F9Cb3D3BF6251A00673303411A7DD9",
        "1000000000000000000"
      ],
      "transaction": {
        "from": "0x89fedb2167197199fd069122e5351a1c779f91b8",
        "to": "0xfae2680f0542e49cde0dbb055a08ff589615827b",
        "gas": "0xa51e",
        "value": "0x0",
        "input": "0x095ea7b300000000000000000000000071cd4ea054f9cb3d3bf6251a00673303411a7dd90000000000000000000000000000000000000000000000000de0b6b3a7640000",
        "nonce": "0x3bc",
        "chainId": "0x14a34"
      },
      "additionalContracts": [],
      "isFixedGasLimit": false
    },
    {
      "hash": "0xfd47c576efe7d7d014df804557bcd08279ed4fb9e8d667e93a2f2dd482bc156b",
      "transactionType": "CALL",
      "contractName": null,
      "contractAddress": "0x71cd4ea054f9cb3d3bf6251a00673303411a7dd9",
      "function": "swapExactTokensForTokens(uint256,uint256,bool,(address,address,uint24,int24,address),bytes,address,uint256)",
      "arguments": [
        "1000000000000000000",
        "0",
        "false",
        "(0xc2f9a0D977Afa1DF712AbD4AAC7C8109E3B17E50, 0xfAE2680F0542E49CDE0DBB055a08FF589615827B, 3000, 60, 0x9DA30fac28d688C6e9536BF74c6488947D774fC0)",
        "0x",
        "0x89fEdB2167197199Fd069122e5351A1C779F91B8",
        "1764842992"
      ],
      "transaction": {
        "from": "0x89fedb2167197199fd069122e5351a1c779f91b8",
        "to": "0x71cd4ea054f9cb3d3bf6251a00673303411a7dd9",
        "gas": "0x41ef8",
        "value": "0x0",
        "input": "0xb1a0d5710000000000000000000000000000000000000000000000000de0b6b3a764000000000000000000000000000000000000000000000000000000000000000000000000000000000000000000000000000000000000000000000000000000000000000000000000000000000000c2f9a0d977afa1df712abd4aac7c8109e3b17e50000000000000000000000000fae2680f0542e49cde0dbb055a08ff589615827b0000000000000000000000000000000000000000000000000000000000000bb8000000000000000000000000000000000000000000000000000000000000003c0000000000000000000000009da30fac28d688c6e9536bf74c6488947d774fc0000000000000000000000000000000000000000000000000000000000000016000000000000000000000000089fedb2167197199fd069122e5351a1c779f91b80000000000000000000000000000000000000000000000000000000069315df00000000000000000000000000000000000000000000000000000000000000000",
        "nonce": "0x3bd",
        "chainId": "0x14a34"
      },
      "additionalContracts": [],
      "isFixedGasLimit": false
    }
  ],
  "receipts": [
    {
      "status": "0x1",
      "cumulativeGasUsed": "0x664a76",
      "logs": [
        {
          "address": "0xc2f9a0d977afa1df712abd4aac7c8109e3b17e50",
          "topics": [
            "0x8c5be1e5ebec7d5bd14f71427d1e84f3dd0314c0f7b2291e5b200ac8c7c3b925",
            "0x00000000000000000000000089fedb2167197199fd069122e5351a1c779f91b8",
            "0x000000000000000000000000000000000022d473030f116ddee9f6b43ac78ba3"
          ],
          "data": "0xffffffffffffffffffffffffffffffffffffffffffffffffffffffffffffffff",
          "blockHash": "0x56990f451fc2d455eee169552b44e2f21f2a34b28d339d6df626cc217beca47f",
          "blockNumber": "0x20eff82",
          "blockTimestamp": "0x69315de4",
          "transactionHash": "0x9cb5896b975ab7365171f27f6583d8289b5ebec0963d3c86ebe3b91d72e49da3",
          "transactionIndex": "0x2a",
          "logIndex": "0x33",
          "removed": false
        }
      ],
      "logsBloom": "0x00000000000000000000000000000000000000000000000000400000000000000000000000000000000000000000000000000000800000000080000000200000000000000000000000004000000000000000000000000800000000000000000000000000000000000000000000000800000000000000000000000000000000000000000000000000000000000000000000000000000000000004000000000000020000000000000000000000000000000000000000000800000000000000000000000000000000000000000000002000000000000000000000000000000000000010000000000000000000000000000000000000000000000000000000000000",
      "type": "0x2",
      "transactionHash": "0x9cb5896b975ab7365171f27f6583d8289b5ebec0963d3c86ebe3b91d72e49da3",
      "transactionIndex": "0x2a",
      "blockHash": "0x56990f451fc2d455eee169552b44e2f21f2a34b28d339d6df626cc217beca47f",
      "blockNumber": "0x20eff82",
      "gasUsed": "0x6da4",
      "effectiveGasPrice": "0x124f80",
      "blobGasUsed": "0x79e0",
      "from": "0x89fedb2167197199fd069122e5351a1c779f91b8",
      "to": "0xc2f9a0d977afa1df712abd4aac7c8109e3b17e50",
      "contractAddress": null,
      "daFootprintGasScalar": "0x138",
      "l1BaseFeeScalar": "0x44d",
      "l1BlobBaseFee": "0x1d",
      "l1BlobBaseFeeScalar": "0xa118b",
      "l1Fee": "0x78b",
      "l1GasPrice": "0xa",
      "l1GasUsed": "0x640"
    },
    {
      "status": "0x1",
      "cumulativeGasUsed": "0x66b784",
      "logs": [
        {
          "address": "0x000000000022d473030f116ddee9f6b43ac78ba3",
          "topics": [
            "0xda9fa7c1b00402c17d0161b249b1ab8bbec047c5a52207b9c112deffd817036b",
            "0x00000000000000000000000089fedb2167197199fd069122e5351a1c779f91b8",
            "0x000000000000000000000000c2f9a0d977afa1df712abd4aac7c8109e3b17e50",
            "0x0000000000000000000000004b2c77d209d3405f41a037ec6c77f7f5b8e2ca80"
          ],
          "data": "0x000000000000000000000000ffffffffffffffffffffffffffffffffffffffff0000000000000000000000000000000000000000000000000000ffffffffffff",
          "blockHash": "0x56990f451fc2d455eee169552b44e2f21f2a34b28d339d6df626cc217beca47f",
          "blockNumber": "0x20eff82",
          "blockTimestamp": "0x69315de4",
          "transactionHash": "0x45738ed19e766de1dbda181b3192c3a98dd4200f51b15d22680fd92ed255589d",
          "transactionIndex": "0x2b",
          "logIndex": "0x34",
          "removed": false
        }
      ],
      "logsBloom": "0x00010000000000010000000000000000000000000000000000400000000000000000000400000000000000000000000000000000000000000088000010080000000020000000000000000000000000000000000000000000000000000000000000000000000000000000000000000000000000000000000000000000000000000030000000000000000000000000000000000000000000000004000000000000000000000000000000000000000000000000000000000000000000080000000000000000000000000000000000000000000000000000000040000000000000000000000000000000000000000000000000000000000000000000000000000400",
      "type": "0x2",
      "transactionHash": "0x45738ed19e766de1dbda181b3192c3a98dd4200f51b15d22680fd92ed255589d",
      "transactionIndex": "0x2b",
      "blockHash": "0x56990f451fc2d455eee169552b44e2f21f2a34b28d339d6df626cc217beca47f",
      "blockNumber": "0x20eff82",
      "gasUsed": "0x6d0e",
      "effectiveGasPrice": "0x124f80",
      "blobGasUsed": "0x89b8",
      "from": "0x89fedb2167197199fd069122e5351a1c779f91b8",
      "to": "0x000000000022d473030f116ddee9f6b43ac78ba3",
      "contractAddress": null,
      "daFootprintGasScalar": "0x138",
      "l1BaseFeeScalar": "0x44d",
      "l1BlobBaseFee": "0x1d",
      "l1BlobBaseFeeScalar": "0xa118b",
      "l1Fee": "0x886",
      "l1GasPrice": "0xa",
      "l1GasUsed": "0x710"
    },
    {
      "status": "0x1",
      "cumulativeGasUsed": "0x518e0",
      "logs": [
        {
          "address": "0xfae2680f0542e49cde0dbb055a08ff589615827b",
          "topics": [
            "0x8c5be1e5ebec7d5bd14f71427d1e84f3dd0314c0f7b2291e5b200ac8c7c3b925",
            "0x00000000000000000000000089fedb2167197199fd069122e5351a1c779f91b8",
            "0x000000000000000000000000000000000022d473030f116ddee9f6b43ac78ba3"
          ],
          "data": "0xffffffffffffffffffffffffffffffffffffffffffffffffffffffffffffffff",
          "blockHash": "0xdec6e2fa3b50f58b17c84a843dc9cda0d17b8d3731b56953181cbe217c5273ad",
          "blockNumber": "0x20eff83",
          "blockTimestamp": "0x69315de6",
          "transactionHash": "0xfd47c576efe7d7d014df804557bcd08279ed4fb9e8d667e93a2f2dd482bc156b",
          "transactionIndex": "0x8",
          "logIndex": "0x7",
          "removed": false
        }
      ],
      "logsBloom": "0x00000000000000000000000000000000000000000000000000400000004000000000000000000000000000000000000000000000800000000080000000200000000000000000000000004000000000000000000000000800000000000000000000000000000000000000000000000000000000000000000000000000000000000000000000000000000000000000000000000000000000000004000000000000020000000000000000000000000000000000000000000000000000000000000000000000000000000000000020000000000000000000000000000000000000020010000000000000000000000000000000000000000000000000000000000000",
      "type": "0x2",
      "transactionHash": "0xfd47c576efe7d7d014df804557bcd08279ed4fb9e8d667e93a2f2dd482bc156b",
      "transactionIndex": "0x8",
      "blockHash": "0xdec6e2fa3b50f58b17c84a843dc9cda0d17b8d3731b56953181cbe217c5273ad",
      "blockNumber": "0x20eff83",
      "gasUsed": "0x6da4",
      "effectiveGasPrice": "0x124f80",
      "blobGasUsed": "0x79e0",
      "from": "0x89fedb2167197199fd069122e5351a1c779f91b8",
      "to": "0xfae2680f0542e49cde0dbb055a08ff589615827b",
      "contractAddress": null,
      "daFootprintGasScalar": "0x138",
      "l1BaseFeeScalar": "0x44d",
      "l1BlobBaseFee": "0x1d",
      "l1BlobBaseFeeScalar": "0xa118b",
      "l1Fee": "0x78b",
      "l1GasPrice": "0xa",
      "l1GasUsed": "0x640"
    },
    {
      "status": "0x1",
      "cumulativeGasUsed": "0x585ee",
      "logs": [
        {
          "address": "0x000000000022d473030f116ddee9f6b43ac78ba3",
          "topics": [
            "0xda9fa7c1b00402c17d0161b249b1ab8bbec047c5a52207b9c112deffd817036b",
            "0x00000000000000000000000089fedb2167197199fd069122e5351a1c779f91b8",
            "0x000000000000000000000000fae2680f0542e49cde0dbb055a08ff589615827b",
            "0x0000000000000000000000004b2c77d209d3405f41a037ec6c77f7f5b8e2ca80"
          ],
          "data": "0x000000000000000000000000ffffffffffffffffffffffffffffffffffffffff0000000000000000000000000000000000000000000000000000ffffffffffff",
          "blockHash": "0xf56af89bdf323b132912ad65cce784fb6cfac7b6bf7e0a00e8d70d671370b3df",
          "blockNumber": "0x20eff83",
          "blockTimestamp": "0x69315de6",
          "transactionHash": "0x09c96be68c32f0807144b8c3b77637ab0a6b31784934de7e7ff288e97860671f",
          "transactionIndex": "0x9",
          "logIndex": "0x8",
          "removed": false
        }
      ],
      "logsBloom": "0x00010000000000010800000000000000000000000000000000400000000000000000000000000000000000000000000000000000000000000088000010080000000000000000000000000000000000000000100000000000000000000000000000000000000000000020000000000000000000000000000000000000000000000020000000000000000000000000000000000000000000000004000000000000000000000000000000000000000000000000000000000000000000080000000000000000000000000000000000000000000000000000000040000000000000000000000000000000000000000000000000000000000000000000000000000400",
      "type": "0x2",
      "transactionHash": "0x09c96be68c32f0807144b8c3b77637ab0a6b31784934de7e7ff288e97860671f",
      "transactionIndex": "0x9",
      "blockHash": "0xf56af89bdf323b132912ad65cce784fb6cfac7b6bf7e0a00e8d70d671370b3df",
      "blockNumber": "0x20eff83",
      "gasUsed": "0x6d0e",
      "effectiveGasPrice": "0x124f80",
      "blobGasUsed": "0x89b8",
      "from": "0x89fedb2167197199fd069122e5351a1c779f91b8",
      "to": "0x000000000022d473030f116ddee9f6b43ac78ba3",
      "contractAddress": null,
      "daFootprintGasScalar": "0x138",
      "l1BaseFeeScalar": "0x44d",
      "l1BlobBaseFee": "0x1d",
      "l1BlobBaseFeeScalar": "0xa118b",
      "l1Fee": "0x886",
      "l1GasPrice": "0xa",
      "l1GasUsed": "0x710"
    },
    {
      "status": "0x1",
      "cumulativeGasUsed": "0xce23e",
      "logs": [
        {
          "address": "0x05e73354cfdd6745c338b50bcfdfa3aa6fa03408",
          "topics": [
            "0xdd466e674ea557f56295e2d0218a125ea4b4f0f6f3307b95f85e6110838d6438",
            "0x1ccf78191fbe34987e408abb12c30ef49515e34bc30e00314cc0a4e2de8fbca9",
            "0x000000000000000000000000c2f9a0d977afa1df712abd4aac7c8109e3b17e50",
            "0x000000000000000000000000fae2680f0542e49cde0dbb055a08ff589615827b"
          ],
          "data": "0x0000000000000000000000000000000000000000000000000000000000000bb8000000000000000000000000000000000000000000000000000000000000003c0000000000000000000000009da30fac28d688c6e9536bf74c6488947d774fc000000000000000000000000000000000000000010000000000000000000000000000000000000000000000000000000000000000000000000000000000000000",
          "blockHash": "0xe5e07f04080cdb54cf3212b48a2bb03c9209bc52b3fd23ed2b03ce51dfb14499",
          "blockNumber": "0x20eff83",
          "blockTimestamp": "0x69315de6",
          "transactionHash": "0x1720431f045e3fca24dba6b1c360c8f85fa4589bf1a21e8bc61bfe149946291e",
          "transactionIndex": "0xa",
          "logIndex": "0x9",
          "removed": false
        },
        {
          "address": "0x4b2c77d209d3405f41a037ec6c77f7f5b8e2ca80",
          "topics": [
            "0xddf252ad1be2c89b69c2b068fc378daa952ba7f163c4a11628f55a4df523b3ef",
            "0x0000000000000000000000000000000000000000000000000000000000000000",
            "0x00000000000000000000000089fedb2167197199fd069122e5351a1c779f91b8",
            "0x0000000000000000000000000000000000000000000000000000000000002235"
          ],
          "data": "0x",
          "blockHash": "0xe5e07f04080cdb54cf3212b48a2bb03c9209bc52b3fd23ed2b03ce51dfb14499",
          "blockNumber": "0x20eff83",
          "blockTimestamp": "0x69315de6",
          "transactionHash": "0x1720431f045e3fca24dba6b1c360c8f85fa4589bf1a21e8bc61bfe149946291e",
          "transactionIndex": "0xa",
          "logIndex": "0xa",
          "removed": false
        },
        {
          "address": "0x05e73354cfdd6745c338b50bcfdfa3aa6fa03408",
          "topics": [
            "0xf208f4912782fd25c7f114ca3723a2d5dd6f3bcc3ac8db5af63baa85f711d5ec",
            "0x1ccf78191fbe34987e408abb12c30ef49515e34bc30e00314cc0a4e2de8fbca9",
            "0x0000000000000000000000004b2c77d209d3405f41a037ec6c77f7f5b8e2ca80"
          ],
          "data": "0xffffffffffffffffffffffffffffffffffffffffffffffffffffffffffff5038000000000000000000000000000000000000000000000000000000000000afc80000000000000000000000000000000000000000000000060f4da7fe284f5dea0000000000000000000000000000000000000000000000000000000000002235",
          "blockHash": "0xe5e07f04080cdb54cf3212b48a2bb03c9209bc52b3fd23ed2b03ce51dfb14499",
          "blockNumber": "0x20eff83",
          "blockTimestamp": "0x69315de6",
          "transactionHash": "0x1720431f045e3fca24dba6b1c360c8f85fa4589bf1a21e8bc61bfe149946291e",
          "transactionIndex": "0xa",
          "logIndex": "0xb",
          "removed": false
        },
        {
          "address": "0xc2f9a0d977afa1df712abd4aac7c8109e3b17e50",
          "topics": [
            "0xddf252ad1be2c89b69c2b068fc378daa952ba7f163c4a11628f55a4df523b3ef",
            "0x00000000000000000000000089fedb2167197199fd069122e5351a1c779f91b8",
            "0x00000000000000000000000005e73354cfdd6745c338b50bcfdfa3aa6fa03408"
          ],
          "data": "0x0000000000000000000000000000000000000000000000056bc75e2d63100000",
          "blockHash": "0xe5e07f04080cdb54cf3212b48a2bb03c9209bc52b3fd23ed2b03ce51dfb14499",
          "blockNumber": "0x20eff83",
          "blockTimestamp": "0x69315de6",
          "transactionHash": "0x1720431f045e3fca24dba6b1c360c8f85fa4589bf1a21e8bc61bfe149946291e",
          "transactionIndex": "0xa",
          "logIndex": "0xc",
          "removed": false
        },
        {
          "address": "0xfae2680f0542e49cde0dbb055a08ff589615827b",
          "topics": [
            "0xddf252ad1be2c89b69c2b068fc378daa952ba7f163c4a11628f55a4df523b3ef",
            "0x00000000000000000000000089fedb2167197199fd069122e5351a1c779f91b8",
            "0x00000000000000000000000005e73354cfdd6745c338b50bcfdfa3aa6fa03408"
          ],
          "data": "0x0000000000000000000000000000000000000000000000056bc75e2d63100000",
          "blockHash": "0xe5e07f04080cdb54cf3212b48a2bb03c9209bc52b3fd23ed2b03ce51dfb14499",
          "blockNumber": "0x20eff83",
          "blockTimestamp": "0x69315de6",
          "transactionHash": "0x1720431f045e3fca24dba6b1c360c8f85fa4589bf1a21e8bc61bfe149946291e",
          "transactionIndex": "0xa",
          "logIndex": "0xd",
          "removed": false
        }
      ],
      "logsBloom": "0x00000000000000010800000000000000000000040000000000400000004000000100000500000000000000000000000000000000000000000088000010000800000020000010000000000008000000000000100000100000000000008000000000000000020000000020000008000820000000000000000000000010000000000010000005000008000800000000000000000001000001000004000000200000000004000000000000000000000000000000000000000800000000000000000000000002001000000000000020002000000000000000000000000000000020020000000000000000000000200800000004000000000000000000000000000000",
      "type": "0x2",
      "transactionHash": "0x1720431f045e3fca24dba6b1c360c8f85fa4589bf1a21e8bc61bfe149946291e",
      "transactionIndex": "0xa",
      "blockHash": "0xe5e07f04080cdb54cf3212b48a2bb03c9209bc52b3fd23ed2b03ce51dfb14499",
      "blockNumber": "0x20eff83",
      "gasUsed": "0x75c50",
      "effectiveGasPrice": "0x124f80",
      "blobGasUsed": "0x195d8",
      "from": "0x89fedb2167197199fd069122e5351a1c779f91b8",
      "to": "0x4b2c77d209d3405f41a037ec6c77f7f5b8e2ca80",
      "contractAddress": null,
      "daFootprintGasScalar": "0x138",
      "l1BaseFeeScalar": "0x44d",
      "l1BlobBaseFee": "0x1d",
      "l1BlobBaseFeeScalar": "0xa118b",
      "l1Fee": "0x192f",
      "l1GasPrice": "0xa",
      "l1GasUsed": "0x14dd"
    },
    {
      "status": "0x1",
      "cumulativeGasUsed": "0xf22b5",
      "logs": [],
      "logsBloom": "0x00000000000000000000000000000000000000000000000000000000000000000000000000000000000000000000000000000000000000000000000000000000000000000000000000000000000000000000000000000000000000000000000000000000000000000000000000000000000000000000000000000000000000000000000000000000000000000000000000000000000000000000000000000000000000000000000000000000000000000000000000000000000000000000000000000000000000000000000000000000000000000000000000000000000000000000000000000000000000000000000000000000000000000000000000000000",
      "type": "0x2",
      "transactionHash": "0x7883f526b156fedffb6847390267a338c918661f9252a9f635969e37429bfbf9",
      "transactionIndex": "0xb",
      "blockHash": "0xf56af89bdf323b132912ad65cce784fb6cfac7b6bf7e0a00e8d70d671370b3df",
      "blockNumber": "0x20eff83",
      "gasUsed": "0x24077",
      "effectiveGasPrice": "0x124f80",
      "blobGasUsed": "0x8fd0",
      "from": "0x89fedb2167197199fd069122e5351a1c779f91b8",
      "to": "0x3c3b029bd75bb4203a13c677221cd699aeafb444",
      "contractAddress": null,
      "daFootprintGasScalar": "0x138",
      "l1BaseFeeScalar": "0x44d",
      "l1BlobBaseFee": "0x1d",
      "l1BlobBaseFeeScalar": "0xa118b",
      "l1Fee": "0x8f7",
      "l1GasPrice": "0xa",
      "l1GasUsed": "0x76d"
    },
    {
      "status": "0x1",
      "cumulativeGasUsed": "0x10f935",
      "logs": [],
      "logsBloom": "0x00000000000000000000000000000000000000000000000000000000000000000000000000000000000000000000000000000000000000000000000000000000000000000000000000000000000000000000000000000000000000000000000000000000000000000000000000000000000000000000000000000000000000000000000000000000000000000000000000000000000000000000000000000000000000000000000000000000000000000000000000000000000000000000000000000000000000000000000000000000000000000000000000000000000000000000000000000000000000000000000000000000000000000000000000000000",
      "type": "0x2",
      "transactionHash": "0x56711a437a0b6cd1ab07c67166925194cf20d81852ee7da9994c1a4fc757ecc1",
      "transactionIndex": "0xc",
      "blockHash": "0xf56af89bdf323b132912ad65cce784fb6cfac7b6bf7e0a00e8d70d671370b3df",
      "blockNumber": "0x20eff83",
      "gasUsed": "0x1d680",
      "effectiveGasPrice": "0x124f80",
      "blobGasUsed": "0x89b8",
      "from": "0x89fedb2167197199fd069122e5351a1c779f91b8",
      "to": "0x3c3b029bd75bb4203a13c677221cd699aeafb444",
      "contractAddress": null,
      "daFootprintGasScalar": "0x138",
      "l1BaseFeeScalar": "0x44d",
      "l1BlobBaseFee": "0x1d",
      "l1BlobBaseFeeScalar": "0xa118b",
      "l1Fee": "0x886",
      "l1GasPrice": "0xa",
      "l1GasUsed": "0x710"
    },
    {
      "status": "0x1",
      "cumulativeGasUsed": "0x11b399",
      "logs": [
        {
          "address": "0xc2f9a0d977afa1df712abd4aac7c8109e3b17e50",
          "topics": [
            "0x8c5be1e5ebec7d5bd14f71427d1e84f3dd0314c0f7b2291e5b200ac8c7c3b925",
            "0x00000000000000000000000089fedb2167197199fd069122e5351a1c779f91b8",
            "0x0000000000000000000000003c3b029bd75bb4203a13c677221cd699aeafb444"
          ],
          "data": "0x0000000000000000000000000000000000000000000000008ac7230489e80000",
          "blockHash": "0xe5e07f04080cdb54cf3212b48a2bb03c9209bc52b3fd23ed2b03ce51dfb14499",
          "blockNumber": "0x20eff83",
          "blockTimestamp": "0x69315de6",
          "transactionHash": "0xd71da6b55c9fdb7e73d9d82549ec9a2de4d7e7c46a2bf7c807b9077c1359e458",
          "transactionIndex": "0xd",
          "logIndex": "0xe",
          "removed": false
        }
      ],
      "logsBloom": "0x00000000000000000000000000000000000000008000000000400000000000000000000000000000000000000000000000000000000000000080000000200000000000000000000000000000000000000000000000000000000000000000000000000000000000000000000000000800000000000000000000000000000000000000000000000000000000000000000000000000000000000004000000000000020000000000000000000020000000000000000000000800000000000000000000000000000000000002000000002000000000000000000000000000000000000010000000000000000000000000000000000000000000000000000000000000",
      "type": "0x2",
      "transactionHash": "0xd71da6b55c9fdb7e73d9d82549ec9a2de4d7e7c46a2bf7c807b9077c1359e458",
      "transactionIndex": "0xd",
      "blockHash": "0xe5e07f04080cdb54cf3212b48a2bb03c9209bc52b3fd23ed2b03ce51dfb14499",
      "blockNumber": "0x20eff83",
      "gasUsed": "0xba64",
      "effectiveGasPrice": "0x124f80",
      "blobGasUsed": "0x79e0",
      "from": "0x89fedb2167197199fd069122e5351a1c779f91b8",
      "to": "0xc2f9a0d977afa1df712abd4aac7c8109e3b17e50",
      "contractAddress": null,
      "daFootprintGasScalar": "0x138",
      "l1BaseFeeScalar": "0x44d",
      "l1BlobBaseFee": "0x1d",
      "l1BlobBaseFeeScalar": "0xa118b",
      "l1Fee": "0x78b",
      "l1GasPrice": "0xa",
      "l1GasUsed": "0x640"
    },
    {
      "status": "0x1",
      "cumulativeGasUsed": "0x13d362",
      "logs": [
        {
          "address": "0xc2f9a0d977afa1df712abd4aac7c8109e3b17e50",
          "topics": [
            "0xddf252ad1be2c89b69c2b068fc378daa952ba7f163c4a11628f55a4df523b3ef",
            "0x00000000000000000000000089fedb2167197199fd069122e5351a1c779f91b8",
            "0x0000000000000000000000003c3b029bd75bb4203a13c677221cd699aeafb444"
          ],
          "data": "0x0000000000000000000000000000000000000000000000008ac7230489e80000",
          "blockHash": "0xe5e07f04080cdb54cf3212b48a2bb03c9209bc52b3fd23ed2b03ce51dfb14499",
          "blockNumber": "0x20eff83",
          "blockTimestamp": "0x69315de6",
          "transactionHash": "0xcf24bd3b88830bdc1d85d8ed3eb652f1072285cdcaeca01a845b1a77ba94ffc3",
          "transactionIndex": "0xe",
          "logIndex": "0xf",
          "removed": false
        }
      ],
      "logsBloom": "0x00000000000000000000000000000000000000008000000000400000000000000000000000000000000000000000000000000000000000000080000000000000000000000000000000000008000000000000000000000000000000000000000000000000000000000000000000000800000000000000000000000010000000000000000000000000000000000000000000000000000000000004000000000000000000000000000000000020000000000000000000000800000000000000000000000002000000000002000000002000000000000000000000000000000000000000000000000000000000000000000000000000000000000000000000000000",
      "type": "0x2",
      "transactionHash": "0xcf24bd3b88830bdc1d85d8ed3eb652f1072285cdcaeca01a845b1a77ba94ffc3",
      "transactionIndex": "0xe",
      "blockHash": "0xe5e07f04080cdb54cf3212b48a2bb03c9209bc52b3fd23ed2b03ce51dfb14499",
      "blockNumber": "0x20eff83",
      "gasUsed": "0x21fc9",
      "effectiveGasPrice": "0x124f80",
      "blobGasUsed": "0x79e0",
      "from": "0x89fedb2167197199fd069122e5351a1c779f91b8",
      "to": "0x3c3b029bd75bb4203a13c677221cd699aeafb444",
      "contractAddress": null,
      "daFootprintGasScalar": "0x138",
      "l1BaseFeeScalar": "0x44d",
      "l1BlobBaseFee": "0x1d",
      "l1BlobBaseFeeScalar": "0xa118b",
      "l1Fee": "0x78b",
      "l1GasPrice": "0xa",
      "l1GasUsed": "0x640"
    },
    {
      "status": "0x1",
      "cumulativeGasUsed": "0x144aee",
      "logs": [
        {
          "address": "0xfae2680f0542e49cde0dbb055a08ff589615827b",
          "topics": [
            "0x8c5be1e5ebec7d5bd14f71427d1e84f3dd0314c0f7b2291e5b200ac8c7c3b925",
            "0x00000000000000000000000089fedb2167197199fd069122e5351a1c779f91b8",
            "0x00000000000000000000000071cd4ea054f9cb3d3bf6251a00673303411a7dd9"
          ],
          "data": "0x0000000000000000000000000000000000000000000000000de0b6b3a7640000",
          "blockHash": "0xf56af89bdf323b132912ad65cce784fb6cfac7b6bf7e0a00e8d70d671370b3df",
          "blockNumber": "0x20eff83",
          "blockTimestamp": "0x69315de6",
          "transactionHash": "0x1cc9c14d341aff96e75435ce62f35ba9cb3ad53c789ece8ff9fbbe5763788aa2",
          "transactionIndex": "0xf",
          "logIndex": "0x10",
          "removed": false
        }
      ],
      "logsBloom": "0x00000000000000000000000000000000000000000000000000400000004000000000000000000000000000000000000000000000000000000080000000200000000000000000000000000000000000000000000000000000000000000000000000000000000000000000000000000000000000000000000000000000000000000000000000000000000000000000000000000000000000000004000000000000020000000000000000000000000000000000000000002000004000000000000000000000000000000000020020000000000000000000000000000000000000020010000000000000000000000000000000000000000000000000000000000000",
      "type": "0x2",
      "transactionHash": "0x1cc9c14d341aff96e75435ce62f35ba9cb3ad53c789ece8ff9fbbe5763788aa2",
      "transactionIndex": "0xf",
      "blockHash": "0xf56af89bdf323b132912ad65cce784fb6cfac7b6bf7e0a00e8d70d671370b3df",
      "blockNumber": "0x20eff83",
      "gasUsed": "0x778c",
      "effectiveGasPrice": "0x124f80",
      "blobGasUsed": "0x79e0",
      "from": "0x89fedb2167197199fd069122e5351a1c779f91b8",
      "to": "0xfae2680f0542e49cde0dbb055a08ff589615827b",
      "contractAddress": null,
      "daFootprintGasScalar": "0x138",
      "l1BaseFeeScalar": "0x44d",
      "l1BlobBaseFee": "0x1d",
      "l1BlobBaseFeeScalar": "0xa118b",
      "l1Fee": "0x78b",
      "l1GasPrice": "0xa",
      "l1GasUsed": "0x640"
    },
    {
      "status": "0x1",
      "cumulativeGasUsed": "0x1746b6",
      "logs": [
        {
          "address": "0x05e73354cfdd6745c338b50bcfdfa3aa6fa03408",
          "topics": [
            "0x40e9cecb9f5f1f1c5b9c97dec2917b7ee92e57ba5563708daca94dd84ad7112f",
            "0x1ccf78191fbe34987e408abb12c30ef49515e34bc30e00314cc0a4e2de8fbca9",
            "0x00000000000000000000000071cd4ea054f9cb3d3bf6251a00673303411a7dd9"
          ],
          "data": "0x0000000000000000000000000000000000000000000000000db6be37da38c947fffffffffffffffffffffffffffffffffffffffffffffffff21f494c589c00000000000000000000000000000000000000000001024884da9050a7d277c56ff60000000000000000000000000000000000000000000000060f4da7fe284f5dea00000000000000000000000000000000000000000000000000000000000000b10000000000000000000000000000000000000000000000000000000000000bb8",
          "blockHash": "0xf56af89bdf323b132912ad65cce784fb6cfac7b6bf7e0a00e8d70d671370b3df",
          "blockNumber": "0x20eff83",
          "blockTimestamp": "0x69315de6",
          "transactionHash": "0xb10f4ac48dcc6f66d10eeca804fd7d2905f3d6516298b64a2fa8cc960e312f8f",
          "transactionIndex": "0x10",
          "logIndex": "0x11",
          "removed": false
        },
        {
          "address": "0xfae2680f0542e49cde0dbb055a08ff589615827b",
          "topics": [
            "0xddf252ad1be2c89b69c2b068fc378daa952ba7f163c4a11628f55a4df523b3ef",
            "0x00000000000000000000000089fedb2167197199fd069122e5351a1c779f91b8",
            "0x00000000000000000000000005e73354cfdd6745c338b50bcfdfa3aa6fa03408"
          ],
          "data": "0x0000000000000000000000000000000000000000000000000de0b6b3a7640000",
          "blockHash": "0xf56af89bdf323b132912ad65cce784fb6cfac7b6bf7e0a00e8d70d671370b3df",
          "blockNumber": "0x20eff83",
          "blockTimestamp": "0x69315de6",
          "transactionHash": "0xb10f4ac48dcc6f66d10eeca804fd7d2905f3d6516298b64a2fa8cc960e312f8f",
          "transactionIndex": "0x10",
          "logIndex": "0x12",
          "removed": false
        },
        {
          "address": "0xc2f9a0d977afa1df712abd4aac7c8109e3b17e50",
          "topics": [
            "0xddf252ad1be2c89b69c2b068fc378daa952ba7f163c4a11628f55a4df523b3ef",
            "0x00000000000000000000000005e73354cfdd6745c338b50bcfdfa3aa6fa03408",
            "0x00000000000000000000000089fedb2167197199fd069122e5351a1c779f91b8"
          ],
          "data": "0x0000000000000000000000000000000000000000000000000db6be37da38c947",
          "blockHash": "0xf56af89bdf323b132912ad65cce784fb6cfac7b6bf7e0a00e8d70d671370b3df",
          "blockNumber": "0x20eff83",
          "blockTimestamp": "0x69315de6",
          "transactionHash": "0xb10f4ac48dcc6f66d10eeca804fd7d2905f3d6516298b64a2fa8cc960e312f8f",
          "transactionIndex": "0x10",
          "logIndex": "0x13",
          "removed": false
        }
      ],
      "logsBloom": "0x00000000000000000000000000000000000000000000000000400000004000000000000100000000000000000000000000000000040000000080000000000000000000000010000000000008000000000000000000100020000000000000000000000000000000000000000000000820000000000000000000000010000000000000000004000000000800000000000000000000000000000004000000000000000000000000000000000000000000000000000000002800004000000000000000000002001000000000020020002000000000000000000000000000000000020000000000000000004000200800000000000000000000000000000000000000",
      "type": "0x2",
      "transactionHash": "0xb10f4ac48dcc6f66d10eeca804fd7d2905f3d6516298b64a2fa8cc960e312f8f",
      "transactionIndex": "0x10",
      "blockHash": "0xf56af89bdf323b132912ad65cce784fb6cfac7b6bf7e0a00e8d70d671370b3df",
      "blockNumber": "0x20eff83",
      "gasUsed": "0x2fbc8",
      "effectiveGasPrice": "0x124f80",
      "blobGasUsed": "0xe2b0",
      "from": "0x89fedb2167197199fd069122e5351a1c779f91b8",
      "to": "0x71cd4ea054f9cb3d3bf6251a00673303411a7dd9",
      "contractAddress": null,
      "daFootprintGasScalar": "0x138",
      "l1BaseFeeScalar": "0x44d",
      "l1BlobBaseFee": "0x1d",
      "l1BlobBaseFeeScalar": "0xa118b",
      "l1Fee": "0xe13",
      "l1GasPrice": "0xa",
      "l1GasUsed": "0xba9"
    }
  ],
  "libraries": [],
  "pending": [],
  "returns": {},
  "timestamp": 1764842982027,
  "chain": 84532,
  "commit": "7025c08"
}