{
  "transactions": [
    {
      "hash": "0xf52308915f9f1bb05e0e51077492811af31f5980f06ad5d114eb26212b01a82d",
      "transactionType": "CALL",
      "contractName": null,
      "contractAddress": "0xc2f9a0d977afa1df712abd4aac7c8109e3b17e50",
      "function": "approve(address,uint256)",
      "arguments": [
        "0x000000000022D473030F116dDEE9F6B43aC78BA3",
        "115792089237316195423570985008687907853269984665640564039457584007913129639935"
      ],
      "transaction": {
        "from": "0x89fedb2167197199fd069122e5351a1c779f91b8",
        "to": "0xc2f9a0d977afa1df712abd4aac7c8109e3b17e50",
        "gas": "0x9770",
        "value": "0x0",
        "input": "0x095ea7b3000000000000000000000000000000000022d473030f116ddee9f6b43ac78ba3ffffffffffffffffffffffffffffffffffffffffffffffffffffffffffffffff",
        "nonce": "0x3ce",
        "chainId": "0x14a34"
      },
      "additionalContracts": [],
      "isFixedGasLimit": false
    },
    {
      "hash": "0x6f04d3bc71e656fbabcad5183df4a460c6110ec09a706c67269218761f06c0eb",
      "transactionType": "CALL",
      "contractName": null,
      "contractAddress": "0x000000000022d473030f116ddee9f6b43ac78ba3",
      "function": "approve(address,address,uint160,uint48)",
      "arguments": [
        "0xc2f9a0D977Afa1DF712AbD4AAC7C8109E3B17E50",
        "0x4B2C77d209D3405F41a037Ec6c77F7F5b8e2ca80",
        "1461501637330902918203684832716283019655932542975",
        "281474976710655"
      ],
      "transaction": {
        "from": "0x89fedb2167197199fd069122e5351a1c779f91b8",
        "to": "0x000000000022d473030f116ddee9f6b43ac78ba3",
        "gas": "0x96a0",
        "value": "0x0",
        "input": "0x87517c45000000000000000000000000c2f9a0d977afa1df712abd4aac7c8109e3b17e500000000000000000000000004b2c77d209d3405f41a037ec6c77f7f5b8e2ca80000000000000000000000000ffffffffffffffffffffffffffffffffffffffff0000000000000000000000000000000000000000000000000000ffffffffffff",
        "nonce": "0x3cf",
        "chainId": "0x14a34"
      },
      "additionalContracts": [],
      "isFixedGasLimit": false
    },
    {
      "hash": "0x9e3a28e3dd149808b05ba1a46c0ba30680a8aef18dc369cf4b24c6e2613192b1",
      "transactionType": "CALL",
      "contractName": null,
      "contractAddress": "0xfae2680f0542e49cde0dbb055a08ff589615827b",
      "function": "approve(address,uint256)",
      "arguments": [
        "0x000000000022D473030F116dDEE9F6B43aC78BA3",
        "115792089237316195423570985008687907853269984665640564039457584007913129639935"
      ],
      "transaction": {
        "from": "0x89fedb2167197199fd069122e5351a1c779f91b8",
        "to": "0xfae2680f0542e49cde0dbb055a08ff589615827b",
        "gas": "0x9770",
        "value": "0x0",
        "input": "0x095ea7b3000000000000000000000000000000000022d473030f116ddee9f6b43ac78ba3ffffffffffffffffffffffffffffffffffffffffffffffffffffffffffffffff",
        "nonce": "0x3d0",
        "chainId": "0x14a34"
      },
      "additionalContracts": [],
      "isFixedGasLimit": false
    },
    {
      "hash": "0x6fe27e0109429aca0f8cdd70a293a57da9618d10649ca22eae8a4c0e030bf0fb",
      "transactionType": "CALL",
      "contractName": null,
      "contractAddress": "0x000000000022d473030f116ddee9f6b43ac78ba3",
      "function": "approve(address,address,uint160,uint48)",
      "arguments": [
        "0xfAE2680F0542E49CDE0DBB055a08FF589615827B",
        "0x4B2C77d209D3405F41a037Ec6c77F7F5b8e2ca80",
        "1461501637330902918203684832716283019655932542975",
        "281474976710655"
      ],
      "transaction": {
        "from": "0x89fedb2167197199fd069122e5351a1c779f91b8",
        "to": "0x000000000022d473030f116ddee9f6b43ac78ba3",
        "gas": "0x96a0",
        "value": "0x0",
        "input": "0x87517c45000000000000000000000000fae2680f0542e49cde0dbb055a08ff589615827b0000000000000000000000004b2c77d209d3405f41a037ec6c77f7f5b8e2ca80000000000000000000000000ffffffffffffffffffffffffffffffffffffffff0000000000000000000000000000000000000000000000000000ffffffffffff",
        "nonce": "0x3d1",
        "chainId": "0x14a34"
      },
      "additionalContracts": [],
      "isFixedGasLimit": false
    },
    {
      "hash": "0xf3cb88a36e0e2197fc571bdabc6828f7bf4b1663680aac234c64800b89542a12",
      "transactionType": "CALL",
      "contractName": null,
      "contractAddress": "0x4b2c77d209d3405f41a037ec6c77f7f5b8e2ca80",
      "function": "multicall(bytes[])",
      "arguments": [
        "[0xf7020405000000000000000000000000c2f9a0d977afa1df712abd4aac7c8109e3b17e50000000000000000000000000fae2680f0542e49cde0dbb055a08ff589615827b0000000000000000000000000000000000000000000000000000000000000bb8000000000000000000000000000000000000000000000000000000000000003c000000000000000000000000c33d51b5f7d1e8ed6328d6ef16ee90d61d8b0fc0000000000000000000000000000000000000000100000000000000000000000000000000000000000000000000000000000000000000000000000000000000e00000000000000000000000000000000000000000000000000000000000000000, 0xdd46508f00000000000000000000000000000000000000000000000000000000000000400000000000000000000000000000000000000000000000000000000069316ed80000000000000000000000000000000000000000000000000000000000000400000000000000000000000000000000000000000000000000000000000000004000000000000000000000000000000000000000000000000000000000000000800000000000000000000000000000000000000000000000000000000000000004020d14140000000000000000000000000000000000000000000000000000000000000000000000000000000000000000000000000000000000000000000000040000000000000000000000000000000000000000000000000000000000000080000000000000000000000000000000000000000000000000000000000000024000000000000000000000000000000000000000000000000000000000000002a0000000000000000000000000000000000000000000000000000000000000030000000000000000000000000000000000000000000000000000000000000001a0000000000000000000000000c2f9a0d977afa1df712abd4aac7c8109e3b17e50000000000000000000000000fae2680f0542e49cde0dbb055a08ff589615827b0000000000000000000000000000000000000000000000000000000000000bb8000000000000000000000000000000000000000000000000000000000000003c000000000000000000000000c33d51b5f7d1e8ed6328d6ef16ee90d61d8b0fc0ffffffffffffffffffffffffffffffffffffffffffffffffffffffffffff5038000000000000000000000000000000000000000000000000000000000000afc80000000000000000000000000000000000000000000000060f4da7fe284f5dea0000000000000000000000000000000000000000000000056bc75e2d631000010000000000000000000000000000000000000000000000056bc75e2d6310000100000000000000000000000089fedb2167197199fd069122e5351a1c779f91b8000000000000000000000000000000000000000000000000000000000000018000000000000000000000000000000000000000000000000000000000000000000000000000000000000000000000000000000000000000000000000000000040000000000000000000000000c2f9a0d977afa1df712abd4aac7c8109e3b17e50000000000000000000000000fae2680f0542e49cde0dbb055a08ff589615827b0000000000000000000000000000000000000000000000000000000000000040000000000000000000000000c2f9a0d977afa1df712abd4aac7c8109e3b17e5000000000000000000000000089fedb2167197199fd069122e5351a1c779f91b80000000000000000000000000000000000000000000000000000000000000040000000000000000000000000fae2680f0542e49cde0dbb055a08ff589615827b00000000000000000000000089fedb2167197199fd069122e5351a1c779f91b8]"
      ],
      "transaction": {
        "from": "0x89fedb2167197199fd069122e5351a1c779f91b8",
        "to": "0x4b2c77d209d3405f41a037ec6c77f7f5b8e2ca80",
        "gas": "0xa3bdc",
        "value": "0x0",
        "input": "0xac9650d800000000000000000000000000000000000000000000000000000000000000200000000000000000000000000000000000000000000000000000000000000002000000000000000000000000000000000000000000000000000000000000004000000000000000000000000000000000000000000000000000000000000001800000000000000000000000000000000000000000000000000000000000000104f7020405000000000000000000000000c2f9a0d977afa1df712abd4aac7c8109e3b17e50000000000000000000000000fae2680f0542e49cde0dbb055a08ff589615827b0000000000000000000000000000000000000000000000000000000000000bb8000000000000000000000000000000000000000000000000000000000000003c000000000000000000000000c33d51b5f7d1e8ed6328d6ef16ee90d61d8b0fc0000000000000000000000000000000000000000100000000000000000000000000000000000000000000000000000000000000000000000000000000000000e00000000000000000000000000000000000000000000000000000000000000000000000000000000000000000000000000000000000000000000000000000000000000000000000000000000000000000000000000000000000000464dd46508f00000000000000000000000000000000000000000000000000000000000000400000000000000000000000000000000000000000000000000000000069316ed80000000000000000000000000000000000000000000000000000000000000400000000000000000000000000000000000000000000000000000000000000004000000000000000000000000000000000000000000000000000000000000000800000000000000000000000000000000000000000000000000000000000000004020d14140000000000000000000000000000000000000000000000000000000000000000000000000000000000000000000000000000000000000000000000040000000000000000000000000000000000000000000000000000000000000080000000000000000000000000000000000000000000000000000000000000024000000000000000000000000000000000000000000000000000000000000002a0000000000000000000000000000000000000000000000000000000000000030000000000000000000000000000000000000000000000000000000000000001a0000000000000000000000000c2f9a0d977afa1df712abd4aac7c8109e3b17e50000000000000000000000000fae2680f0542e49cde0dbb055a08ff589615827b0000000000000000000000000000000000000000000000000000000000000bb8000000000000000000000000000000000000000000000000000000000000003c000000000000000000000000c33d51b5f7d1e8ed6328d6ef16ee90d61d8b0fc0ffffffffffffffffffffffffffffffffffffffffffffffffffffffffffff5038000000000000000000000000000000000000000000000000000000000000afc80000000000000000000000000000000000000000000000060f4da7fe284f5dea0000000000000000000000000000000000000000000000056bc75e2d631000010000000000000000000000000000000000000000000000056bc75e2d6310000100000000000000000000000089fedb2167197199fd069122e5351a1c779f91b8000000000000000000000000000000000000000000000000000000000000018000000000000000000000000000000000000000000000000000000000000000000000000000000000000000000000000000000000000000000000000000000040000000000000000000000000c2f9a0d977afa1df712abd4aac7c8109e3b17e50000000000000000000000000fae2680f0542e49cde0dbb055a08ff589615827b0000000000000000000000000000000000000000000000000000000000000040000000000000000000000000c2f9a0d977afa1df712abd4aac7c8109e3b17e5000000000000000000000000089fedb2167197199fd069122e5351a1c779f91b80000000000000000000000000000000000000000000000000000000000000040000000000000000000000000fae2680f0542e49cde0dbb055a08ff589615827b00000000000000000000000089fedb2167197199fd069122e5351a1c779f91b800000000000000000000000000000000000000000000000000000000",
        "nonce": "0x3d2",
        "chainId": "0x14a34"
      },
      "additionalContracts": [],
      "isFixedGasLimit": false
    },
    {
      "hash": "0x1ece3c7dc341b6dc5e943821ea067522c9f176a4055004ef73fbf479701ffa8d",
      "transactionType": "CALL",
      "contractName": null,
      "contractAddress": "0x295c2a390114fbb320eac14ebd9647c2508dd87b",
      "function": "createVault(bytes32,address,uint8,bytes)",
      "arguments": [
        "0xe554cde37d260c30f0f187e4bdeaa250046cf72700c8ef76d72e744bc5289973",
        "0x501de2E7BB508ea13A4B3E33052B8367D9c76290",
        "0",
        "0x"
      ],
      "transaction": {
        "from": "0x89fedb2167197199fd069122e5351a1c779f91b8",
        "to": "0x295c2a390114fbb320eac14ebd9647c2508dd87b",
        "gas": "0x31c3d",
        "value": "0x0",
        "input": "0xc72c1e98e554cde37d260c30f0f187e4bdeaa250046cf72700c8ef76d72e744bc5289973000000000000000000000000501de2e7bb508ea13a4b3e33052b8367d9c76290000000000000000000000000000000000000000000000000000000000000000000000000000000000000000000000000000000000000000000000000000000800000000000000000000000000000000000000000000000000000000000000000",
        "nonce": "0x3d3",
        "chainId": "0x14a34"
      },
      "additionalContracts": [],
      "isFixedGasLimit": false
    },
    {
      "hash": "0x0a9b84ce181eb1c3c5e64c0c98d5c1fd738cba606a2b04533b33580b8bdaa8b4",
      "transactionType": "CALL",
      "contractName": null,
      "contractAddress": "0x295c2a390114fbb320eac14ebd9647c2508dd87b",
      "function": "configureDCA(uint256,uint256,uint256,address,address)",
      "arguments": [
        "0",
        "100",
        "100000000000000000",
        "0xc2f9a0D977Afa1DF712AbD4AAC7C8109E3B17E50",
        "0xfAE2680F0542E49CDE0DBB055a08FF589615827B"
      ],
      "transaction": {
        "from": "0x89fedb2167197199fd069122e5351a1c779f91b8",
        "to": "0x295c2a390114fbb320eac14ebd9647c2508dd87b",
        "gas": "0x289e0",
        "value": "0x0",
        "input": "0xfcd650e500000000000000000000000000000000000000000000000000000000000000000000000000000000000000000000000000000000000000000000000000000064000000000000000000000000000000000000000000000000016345785d8a0000000000000000000000000000c2f9a0d977afa1df712abd4aac7c8109e3b17e50000000000000000000000000fae2680f0542e49cde0dbb055a08ff589615827b",
        "nonce": "0x3d4",
        "chainId": "0x14a34"
      },
      "additionalContracts": [],
      "isFixedGasLimit": false
    },
    {
      "hash": "0xa61d661507c907619545ddd4ea718a9d69a171606405061e8caca0d0a26ae27c",
      "transactionType": "CALL",
      "contractName": null,
      "contractAddress": "0xc2f9a0d977afa1df712abd4aac7c8109e3b17e50",
      "function": "approve(address,uint256)",
      "arguments": [
        "0x295c2A390114fbb320eaC14Ebd9647C2508dd87b",
        "10000000000000000000"
      ],
      "transaction": {
        "from": "0x89fedb2167197199fd069122e5351a1c779f91b8",
        "to": "0xc2f9a0d977afa1df712abd4aac7c8109e3b17e50",
        "gas": "0x10173",
        "value": "0x0",
        "input": "0x095ea7b3000000000000000000000000295c2a390114fbb320eac14ebd9647c2508dd87b0000000000000000000000000000000000000000000000008ac7230489e80000",
        "nonce": "0x3d5",
        "chainId": "0x14a34"
      },
      "additionalContracts": [],
      "isFixedGasLimit": false
    },
    {
      "hash": "0xe21319b8cd2f0493dff43bc6dfe000fbaa2acfbf64d04ddb90a1b341934a6f08",
      "transactionType": "CALL",
      "contractName": null,
      "contractAddress": "0x295c2a390114fbb320eac14ebd9647c2508dd87b",
      "function": "deposit(uint256,address,uint256)",
      "arguments": [
        "0",
        "0xc2f9a0D977Afa1DF712AbD4AAC7C8109E3B17E50",
        "10000000000000000000"
      ],
      "transaction": {
        "from": "0x89fedb2167197199fd069122e5351a1c779f91b8",
        "to": "0x295c2a390114fbb320eac14ebd9647c2508dd87b",
        "gas": "0x31b49",
        "value": "0x0",
        "input": "0xbc157ac10000000000000000000000000000000000000000000000000000000000000000000000000000000000000000c2f9a0d977afa1df712abd4aac7c8109e3b17e500000000000000000000000000000000000000000000000008ac7230489e80000",
        "nonce": "0x3d6",
        "chainId": "0x14a34"
      },
      "additionalContracts": [],
      "isFixedGasLimit": false
    },
    {
      "hash": "0x9bad32a41dc3d586f29029f8eb9f00e6a474d7c8617e32ee7b0e95cfe2df841a",
      "transactionType": "CALL",
      "contractName": null,
      "contractAddress": "0xfae2680f0542e49cde0dbb055a08ff589615827b",
      "function": "approve(address,uint256)",
      "arguments": [
        "0x71cD4Ea054F9Cb3D3BF6251A00673303411A7DD9",
        "1000000000000000000"
      ],
      "transaction": {
        "from": "0x89fedb2167197199fd069122e5351a1c779f91b8",
        "to": "0xfae2680f0542e49cde0dbb055a08ff589615827b",
        "gas": "0x10162",
        "value": "0x0",
        "input": "0x095ea7b300000000000000000000000071cd4ea054f9cb3d3bf6251a00673303411a7dd90000000000000000000000000000000000000000000000000de0b6b3a7640000",
        "nonce": "0x3d7",
        "chainId": "0x14a34"
      },
      "additionalContracts": [],
      "isFixedGasLimit": false
    },
    {
      "hash": "0xb33ed5a231a2c5ec7ad99de2bfd73fb984b9372cdc7c1d92c10a9080795ace56",
      "transactionType": "CALL",
      "contractName": null,
      "contractAddress": "0x71cd4ea054f9cb3d3bf6251a00673303411a7dd9",
      "function": "swapExactTokensForTokens(uint256,uint256,bool,(address,address,uint24,int24,address),bytes,address,uint256)",
      "arguments": [
        "1000000000000000000",
        "0",
        "false",
        "(0xc2f9a0D977Afa1DF712AbD4AAC7C8109E3B17E50, 0xfAE2680F0542E49CDE0DBB055a08FF589615827B, 3000, 60, 0xC33D51B5F7D1E8eD6328d6Ef16eE90d61D8B0Fc0)",
        "0x",
        "0x89fEdB2167197199Fd069122e5351A1C779F91B8",
        "1764843750"
      ],
      "transaction": {
        "from": "0x89fedb2167197199fd069122e5351a1c779f91b8",
        "to": "0x71cd4ea054f9cb3d3bf6251a00673303411a7dd9",
        "gas": "0x4e3dd",
        "value": "0x0",
        "input": "0xb1a0d5710000000000000000000000000000000000000000000000000de0b6b3a764000000000000000000000000000000000000000000000000000000000000000000000000000000000000000000000000000000000000000000000000000000000000000000000000000000000000c2f9a0d977afa1df712abd4aac7c8109e3b17e50000000000000000000000000fae2680f0542e49cde0dbb055a08ff589615827b0000000000000000000000000000000000000000000000000000000000000bb8000000000000000000000000000000000000000000000000000000000000003c000000000000000000000000c33d51b5f7d1e8ed6328d6ef16ee90d61d8b0fc0000000000000000000000000000000000000000000000000000000000000016000000000000000000000000089fedb2167197199fd069122e5351a1c779f91b800000000000000000000000000000000000000000000000000000000693160e60000000000000000000000000000000000000000000000000000000000000000",
        "nonce": "0x3d8",
        "chainId": "0x14a34"
      },
      "additionalContracts": [],
      "isFixedGasLimit": false
    }
  ],
  "receipts": [
    {
      "status": "0x1",
      "cumulativeGasUsed": "0x27fae5",
      "logs": [
        {
          "address": "0xc2f9a0d977afa1df712abd4aac7c8109e3b17e50",
          "topics": [
            "0x8c5be1e5ebec7d5bd14f71427d1e84f3dd0314c0f7b2291e5b200ac8c7c3b925",
            "0x00000000000000000000000089fedb2167197199fd069122e5351a1c779f91b8",
            "0x000000000000000000000000000000000022d473030f116ddee9f6b43ac78ba3"
          ],
          "data": "0xffffffffffffffffffffffffffffffffffffffffffffffffffffffffffffffff",
          "blockHash": "0x8fcc04b3f059744acebc8de839712f5fea2dc2f677491ac072c038af6c6d2e1b",
          "blockNumber": "0x20f00fe",
          "blockTimestamp": "0x693160dc",
          "transactionHash": "0x9bad32a41dc3d586f29029f8eb9f00e6a474d7c8617e32ee7b0e95cfe2df841a",
          "transactionIndex": "0xd",
          "logIndex": "0x64",
          "removed": false
        }
      ],
      "logsBloom": "0x00000000000000000000000000000000000000000000000000400000000000000000000000000000000000000000000000000000800000000080000000200000000000000000000000004000000000000000000000000800000000000000000000000000000000000000000000000800000000000000000000000000000000000000000000000000000000000000000000000000000000000004000000000000020000000000000000000000000000000000000000000800000000000000000000000000000000000000000000002000000000000000000000000000000000000010000000000000000000000000000000000000000000000000000000000000",
      "type": "0x2",
      "transactionHash": "0x9bad32a41dc3d586f29029f8eb9f00e6a474d7c8617e32ee7b0e95cfe2df841a",
      "transactionIndex": "0xd",
      "blockHash": "0x8fcc04b3f059744acebc8de839712f5fea2dc2f677491ac072c038af6c6d2e1b",
      "blockNumber": "0x20f00fe",
      "gasUsed": "0x6da4",
      "effectiveGasPrice": "0x1256b3",
      "blobGasUsed": "0x79e0",
      "from": "0x89fedb2167197199fd069122e5351a1c779f91b8",
      "to": "0xc2f9a0d977afa1df712abd4aac7c8109e3b17e50",
      "contractAddress": null,
      "daFootprintGasScalar": "0x138",
      "l1BaseFeeScalar": "0x44d",
      "l1BlobBaseFee": "0x2a",
      "l1BlobBaseFeeScalar": "0xa118b",
      "l1Fee": "0xae3",
      "l1GasPrice": "0x9",
      "l1GasUsed": "0x640"
    },
    {
      "status": "0x1",
      "cumulativeGasUsed": "0x2867f3",
      "logs": [
        {
          "address": "0x000000000022d473030f116ddee9f6b43ac78ba3",
          "topics": [
            "0xda9fa7c1b00402c17d0161b249b1ab8bbec047c5a52207b9c112deffd817036b",
            "0x00000000000000000000000089fedb2167197199fd069122e5351a1c779f91b8",
            "0x000000000000000000000000c2f9a0d977afa1df712abd4aac7c8109e3b17e50",
            "0x0000000000000000000000004b2c77d209d3405f41a037ec6c77f7f5b8e2ca80"
          ],
          "data": "0x000000000000000000000000ffffffffffffffffffffffffffffffffffffffff0000000000000000000000000000000000000000000000000000ffffffffffff",
          "blockHash": "0x8fcc04b3f059744acebc8de839712f5fea2dc2f677491ac072c038af6c6d2e1b",
          "blockNumber": "0x20f00fe",
          "blockTimestamp": "0x693160dc",
          "transactionHash": "0x6fe27e0109429aca0f8cdd70a293a57da9618d10649ca22eae8a4c0e030bf0fb",
          "transactionIndex": "0xe",
          "logIndex": "0x65",
          "removed": false
        }
      ],
      "logsBloom": "0x00010000000000010000000000000000000000000000000000400000000000000000000400000000000000000000000000000000000000000088000010080000000020000000000000000000000000000000000000000000000000000000000000000000000000000000000000000000000000000000000000000000000000000030000000000000000000000000000000000000000000000004000000000000000000000000000000000000000000000000000000000000000000080000000000000000000000000000000000000000000000000000000040000000000000000000000000000000000000000000000000000000000000000000000000000400",
      "type": "0x2",
      "transactionHash": "0x6fe27e0109429aca0f8cdd70a293a57da9618d10649ca22eae8a4c0e030bf0fb",
      "transactionIndex": "0xe",
      "blockHash": "0x8fcc04b3f059744acebc8de839712f5fea2dc2f677491ac072c038af6c6d2e1b",
      "blockNumber": "0x20f00fe",
      "gasUsed": "0x6d0e",
      "effectiveGasPrice": "0x1256b3",
      "blobGasUsed": "0x89b8",
      "from": "0x89fedb2167197199fd069122e5351a1c779f91b8",
      "to": "0x000000000022d473030f116ddee9f6b43ac78ba3",
      "contractAddress": null,
      "daFootprintGasScalar": "0x138",
      "l1BaseFeeScalar": "0x44d",
      "l1BlobBaseFee": "0x2a",
      "l1BlobBaseFeeScalar": "0xa118b",
      "l1Fee": "0xc4d",
      "l1GasPrice": "0x9",
      "l1GasUsed": "0x710"
    },
    {
      "status": "0x1",
      "cumulativeGasUsed": "0x6103b2",
      "logs": [
        {
          "address": "0xfae2680f0542e49cde0dbb055a08ff589615827b",
          "topics": [
            "0x8c5be1e5ebec7d5bd14f71427d1e84f3dd0314c0f7b2291e5b200ac8c7c3b925",
            "0x00000000000000000000000089fedb2167197199fd069122e5351a1c779f91b8",
            "0x000000000000000000000000000000000022d473030f116ddee9f6b43ac78ba3"
          ],
          "data": "0xffffffffffffffffffffffffffffffffffffffffffffffffffffffffffffffff",
          "blockHash": "0x8fcc04b3f059744acebc8de839712f5fea2dc2f677491ac072c038af6c6d2e1b",
          "blockNumber": "0x20f00fe",
          "blockTimestamp": "0x693160dc",
          "transactionHash": "0xb33ed5a231a2c5ec7ad99de2bfd73fb984b9372cdc7c1d92c10a9080795ace56",
          "transactionIndex": "0x10",
          "logIndex": "0x67",
          "removed": false
        }
      ],
      "logsBloom": "0x00000000000000000000000000000000000000000000000000400000004000000000000000000000000000000000000000000000800000000080000000200000000000000000000000004000000000000000000000000800000000000000000000000000000000000000000000000000000000000000000000000000000000000000000000000000000000000000000000000000000000000004000000000000020000000000000000000000000000000000000000000000000000000000000000000000000000000000000020000000000000000000000000000000000000020010000000000000000000000000000000000000000000000000000000000000",
      "type": "0x2",
      "transactionHash": "0xb33ed5a231a2c5ec7ad99de2bfd73fb984b9372cdc7c1d92c10a9080795ace56",
      "transactionIndex": "0x10",
      "blockHash": "0x8fcc04b3f059744acebc8de839712f5fea2dc2f677491ac072c038af6c6d2e1b",
      "blockNumber": "0x20f00fe",
      "gasUsed": "0x6da4",
      "effectiveGasPrice": "0x1256b3",
      "blobGasUsed": "0x79e0",
      "from": "0x89fedb2167197199fd069122e5351a1c779f91b8",
      "to": "0xfae2680f0542e49cde0dbb055a08ff589615827b",
      "contractAddress": null,
      "daFootprintGasScalar": "0x138",
      "l1BaseFeeScalar": "0x44d",
      "l1BlobBaseFee": "0x2a",
      "l1BlobBaseFeeScalar": "0xa118b",
      "l1Fee": "0xae3",
      "l1GasPrice": "0x9",
      "l1GasUsed": "0x640"
    },
    {
      "status": "0x1",
      "cumulativeGasUsed": "0x6170c0",
      "logs": [
        {
          "address": "0x000000000022d473030f116ddee9f6b43ac78ba3",
          "topics": [
            "0xda9fa7c1b00402c17d0161b249b1ab8bbec047c5a52207b9c112deffd817036b",
            "0x00000000000000000000000089fedb2167197199fd069122e5351a1c779f91b8",
            "0x000000000000000000000000fae2680f0542e49cde0dbb055a08ff589615827b",
            "0x0000000000000000000000004b2c77d209d3405f41a037ec6c77f7f5b8e2ca80"
          ],
          "data": "0x000000000000000000000000ffffffffffffffffffffffffffffffffffffffff0000000000000000000000000000000000000000000000000000ffffffffffff",
          "blockHash": "0x8fcc04b3f059744acebc8de839712f5fea2dc2f677491ac072c038af6c6d2e1b",
          "blockNumber": "0x20f00fe",
          "blockTimestamp": "0x693160dc",
          "transactionHash": "0xf3cb88a36e0e2197fc571bdabc6828f7bf4b1663680aac234c64800b89542a12",
          "transactionIndex": "0x11",
          "logIndex": "0x68",
          "removed": false
        }
      ],
      "logsBloom": "0x00010000000000010800000000000000000000000000000000400000000000000000000000000000000000000000000000000000000000000088000010080000000000000000000000000000000000000000100000000000000000000000000000000000000000000020000000000000000000000000000000000000000000000020000000000000000000000000000000000000000000000004000000000000000000000000000000000000000000000000000000000000000000080000000000000000000000000000000000000000000000000000000040000000000000000000000000000000000000000000000000000000000000000000000000000400",
      "type": "0x2",
      "transactionHash": "0xf3cb88a36e0e2197fc571bdabc6828f7bf4b1663680aac234c64800b89542a12",
      "transactionIndex": "0x11",
      "blockHash": "0x8fcc04b3f059744acebc8de839712f5fea2dc2f677491ac072c038af6c6d2e1b",
      "blockNumber": "0x20f00fe",
      "gasUsed": "0x6d0e",
      "effectiveGasPrice": "0x1256b3",
      "blobGasUsed": "0x89b8",
      "from": "0x89fedb2167197199fd069122e5351a1c779f91b8",
      "to": "0x000000000022d473030f116ddee9f6b43ac78ba3",
      "contractAddress": null,
      "daFootprintGasScalar": "0x138",
      "l1BaseFeeScalar": "0x44d",
      "l1BlobBaseFee": "0x2a",
      "l1BlobBaseFeeScalar": "0xa118b",
      "l1Fee": "0xc4d",
      "l1GasPrice": "0x9",
      "l1GasUsed": "0x710"
    },
    {
      "status": "0x1",
      "cumulativeGasUsed": "0x68d97c",
      "logs": [
        {
          "address": "0x05e73354cfdd6745c338b50bcfdfa3aa6fa03408",
          "topics": [
            "0xdd466e674ea557f56295e2d0218a125ea4b4f0f6f3307b95f85e6110838d6438",
            "0xe554cde37d260c30f0f187e4bdeaa250046cf72700c8ef76d72e744bc5289973",
            "0x000000000000000000000000c2f9a0d977afa1df712abd4aac7c8109e3b17e50",
            "0x000000000000000000000000fae2680f0542e49cde0dbb055a08ff589615827b"
          ],
          "data": "0x0000000000000000000000000000000000000000000000000000000000000bb8000000000000000000000000000000000000000000000000000000000000003c000000000000000000000000c33d51b5f7d1e8ed6328d6ef16ee90d61d8b0fc000000000000000000000000000000000000000010000000000000000000000000000000000000000000000000000000000000000000000000000000000000000",
          "blockHash": "0x8fcc04b3f059744acebc8de839712f5fea2dc2f677491ac072c038af6c6d2e1b",
          "blockNumber": "0x20f00fe",
          "blockTimestamp": "0x693160dc",
          "transactionHash": "0xa61d661507c907619545ddd4ea718a9d69a171606405061e8caca0d0a26ae27c",
          "transactionIndex": "0x12",
          "logIndex": "0x69",
          "removed": false
        },
        {
          "address": "0x4b2c77d209d3405f41a037ec6c77f7f5b8e2ca80",
          "topics": [
            "0xddf252ad1be2c89b69c2b068fc378daa952ba7f163c4a11628f55a4df523b3ef",
            "0x0000000000000000000000000000000000000000000000000000000000000000",
            "0x00000000000000000000000089fedb2167197199fd069122e5351a1c779f91b8",
            "0x0000000000000000000000000000000000000000000000000000000000002236"
          ],
          "data": "0x",
          "blockHash": "0x8fcc04b3f059744acebc8de839712f5fea2dc2f677491ac072c038af6c6d2e1b",
          "blockNumber": "0x20f00fe",
          "blockTimestamp": "0x693160dc",
          "transactionHash": "0xa61d661507c907619545ddd4ea718a9d69a171606405061e8caca0d0a26ae27c",
          "transactionIndex": "0x12",
          "logIndex": "0x6a",
          "removed": false
        },
        {
          "address": "0x295c2a390114fbb320eac14ebd9647c2508dd87b",
          "topics": [
            "0xeb8ee85bf8099fefc103c76f4525dc8945de6567173188d44ad9a9d471180c36"
          ],
          "data": "0xe554cde37d260c30f0f187e4bdeaa250046cf72700c8ef76d72e744bc52899730000000000000000000000000000000000000000000000000000000000000002",
          "blockHash": "0x8fcc04b3f059744acebc8de839712f5fea2dc2f677491ac072c038af6c6d2e1b",
          "blockNumber": "0x20f00fe",
          "blockTimestamp": "0x693160dc",
          "transactionHash": "0xa61d661507c907619545ddd4ea718a9d69a171606405061e8caca0d0a26ae27c",
          "transactionIndex": "0x12",
          "logIndex": "0x6b",
          "removed": false
        },
        {
          "address": "0x05e73354cfdd6745c338b50bcfdfa3aa6fa03408",
          "topics": [
            "0xf208f4912782fd25c7f114ca3723a2d5dd6f3bcc3ac8db5af63baa85f711d5ec",
            "0xe554cde37d260c30f0f187e4bdeaa250046cf72700c8ef76d72e744bc5289973",
            "0x0000000000000000000000004b2c77d209d3405f41a037ec6c77f7f5b8e2ca80"
          ],
          "data": "0xffffffffffffffffffffffffffffffffffffffffffffffffffffffffffff5038000000000000000000000000000000000000000000000000000000000000afc80000000000000000000000000000000000000000000000060f4da7fe284f5dea0000000000000000000000000000000000000000000000000000000000002236",
          "blockHash": "0x8fcc04b3f059744acebc8de839712f5fea2dc2f677491ac072c038af6c6d2e1b",
          "blockNumber": "0x20f00fe",
          "blockTimestamp": "0x693160dc",
          "transactionHash": "0xa61d661507c907619545ddd4ea718a9d69a171606405061e8caca0d0a26ae27c",
          "transactionIndex": "0x12",
          "logIndex": "0x6c",
          "removed": false
        },
        {
          "address": "0x295c2a390114fbb320eac14ebd9647c2508dd87b",
          "topics": [
            "0xeb8ee85bf8099fefc103c76f4525dc8945de6567173188d44ad9a9d471180c36"
          ],
          "data": "0xe554cde37d260c30f0f187e4bdeaa250046cf72700c8ef76d72e744bc52899730000000000000000000000000000000000000000000000000000000000000003",
          "blockHash": "0x8fcc04b3f059744acebc8de839712f5fea2dc2f677491ac072c038af6c6d2e1b",
          "blockNumber": "0x20f00fe",
          "blockTimestamp": "0x693160dc",
          "transactionHash": "0xa61d661507c907619545ddd4ea718a9d69a171606405061e8caca0d0a26ae27c",
          "transactionIndex": "0x12",
          "logIndex": "0x6d",
          "removed": false
        },
        {
          "address": "0xc2f9a0d977afa1df712abd4aac7c8109e3b17e50",
          "topics": [
            "0xddf252ad1be2c89b69c2b068fc378daa952ba7f163c4a11628f55a4df523b3ef",
            "0x00000000000000000000000089fedb2167197199fd069122e5351a1c779f91b8",
            "0x00000000000000000000000005e73354cfdd6745c338b50bcfdfa3aa6fa03408"
          ],
          "data": "0x0000000000000000000000000000000000000000000000056bc75e2d63100000",
          "blockHash": "0x8fcc04b3f059744acebc8de839712f5fea2dc2f677491ac072c038af6c6d2e1b",
          "blockNumber": "0x20f00fe",
          "blockTimestamp": "0x693160dc",
          "transactionHash": "0xa61d661507c907619545ddd4ea718a9d69a171606405061e8caca0d0a26ae27c",
          "transactionIndex": "0x12",
          "logIndex": "0x6e",
          "removed": false
        },
        {
          "address": "0xfae2680f0542e49cde0dbb055a08ff589615827b",
          "topics": [
            "0xddf252ad1be2c89b69c2b068fc378daa952ba7f163c4a11628f55a4df523b3ef",
            "0x00000000000000000000000089fedb2167197199fd069122e5351a1c779f91b8",
            "0x00000000000000000000000005e73354cfdd6745c338b50bcfdfa3aa6fa03408"
          ],
          "data": "0x0000000000000000000000000000000000000000000000056bc75e2d63100000",
          "blockHash": "0x8fcc04b3f059744acebc8de839712f5fea2dc2f677491ac072c038af6c6d2e1b",
          "blockNumber": "0x20f00fe",
          "blockTimestamp": "0x693160dc",
          "transactionHash": "0xa61d661507c907619545ddd4ea718a9d69a171606405061e8caca0d0a26ae27c",
          "transactionIndex": "0x12",
          "logIndex": "0x6f",
          "removed": false
        }
      ],
      "logsBloom": "0x00000000000000110800000000010000000000000000000000400000004008000100000500000000000000000000000000002000000000040088000010000c00000020000010000000000008000000000000100000100000000000028000000000000000020000000020400000000880000000000000008000000010000000000010000005000008000000000000000000000001000000000004000000200000000004000000000000000000000080000000000000000800000000000000000000000002001000000000000020002000000000000000000000000000000020020000000000000000000000000800000004000000000000000002000000000000",
      "type": "0x2",
      "transactionHash": "0xa61d661507c907619545ddd4ea718a9d69a171606405061e8caca0d0a26ae27c",
      "transactionIndex": "0x12",
      "blockHash": "0x8fcc04b3f059744acebc8de839712f5fea2dc2f677491ac072c038af6c6d2e1b",
      "blockNumber": "0x20f00fe",
      "gasUsed": "0x768bc",
      "effectiveGasPrice": "0x1256b3",
      "blobGasUsed": "0x195d8",
      "from": "0x89fedb2167197199fd069122e5351a1c779f91b8",
      "to": "0x4b2c77d209d3405f41a037ec6c77f7f5b8e2ca80",
      "contractAddress": null,
      "daFootprintGasScalar": "0x138",
      "l1BaseFeeScalar": "0x44d",
      "l1BlobBaseFee": "0x2a",
      "l1BlobBaseFeeScalar": "0xa118b",
      "l1Fee": "0x2441",
      "l1GasPrice": "0x9",
      "l1GasUsed": "0x14d0"
    },
    {
      "status": "0x1",
      "cumulativeGasUsed": "0x6b19f3",
      "logs": [],
      "logsBloom": "0x00000000000000000000000000000000000000000000000000000000000000000000000000000000000000000000000000000000000000000000000000000000000000000000000000000000000000000000000000000000000000000000000000000000000000000000000000000000000000000000000000000000000000000000000000000000000000000000000000000000000000000000000000000000000000000000000000000000000000000000000000000000000000000000000000000000000000000000000000000000000000000000000000000000000000000000000000000000000000000000000000000000000000000000000000000000",
      "type": "0x2",
      "transactionHash": "0xe21319b8cd2f0493dff43bc6dfe000fbaa2acfbf64d04ddb90a1b341934a6f08",
      "transactionIndex": "0x13",
      "blockHash": "0x8fcc04b3f059744acebc8de839712f5fea2dc2f677491ac072c038af6c6d2e1b",
      "blockNumber": "0x20f00fe",
      "gasUsed": "0x24077",
      "effectiveGasPrice": "0x1256b3",
      "blobGasUsed": "0x8fd0",
      "from": "0x89fedb2167197199fd069122e5351a1c779f91b8",
      "to": "0x295c2a390114fbb320eac14ebd9647c2508dd87b",
      "contractAddress": null,
      "daFootprintGasScalar": "0x138",
      "l1BaseFeeScalar": "0x44d",
      "l1BlobBaseFee": "0x2a",
      "l1BlobBaseFeeScalar": "0xa118b",
      "l1Fee": "0xcf0",
      "l1GasPrice": "0x9",
      "l1GasUsed": "0x76d"
    },
    {
      "status": "0x1",
      "cumulativeGasUsed": "0x6cf073",
      "logs": [],
      "logsBloom": "0x00000000000000000000000000000000000000000000000000000000000000000000000000000000000000000000000000000000000000000000000000000000000000000000000000000000000000000000000000000000000000000000000000000000000000000000000000000000000000000000000000000000000000000000000000000000000000000000000000000000000000000000000000000000000000000000000000000000000000000000000000000000000000000000000000000000000000000000000000000000000000000000000000000000000000000000000000000000000000000000000000000000000000000000000000000000",
      "type": "0x2",
      "transactionHash": "0x0a9b84ce181eb1c3c5e64c0c98d5c1fd738cba606a2b04533b33580b8bdaa8b4",
      "transactionIndex": "0x14",
      "blockHash": "0x8fcc04b3f059744acebc8de839712f5fea2dc2f677491ac072c038af6c6d2e1b",
      "blockNumber": "0x20f00fe",
      "gasUsed": "0x1d680",
      "effectiveGasPrice": "0x1256b3",
      "blobGasUsed": "0x89b8",
      "from": "0x89fedb2167197199fd069122e5351a1c779f91b8",
      "to": "0x295c2a390114fbb320eac14ebd9647c2508dd87b",
      "contractAddress": null,
      "daFootprintGasScalar": "0x138",
      "l1BaseFeeScalar": "0x44d",
      "l1BlobBaseFee": "0x2a",
      "l1BlobBaseFeeScalar": "0xa118b",
      "l1Fee": "0xc64",
      "l1GasPrice": "0x9",
      "l1GasUsed": "0x71d"
    },
    {
      "status": "0x1",
      "cumulativeGasUsed": "0x6daad7",
      "logs": [
        {
          "address": "0xc2f9a0d977afa1df712abd4aac7c8109e3b17e50",
          "topics": [
            "0x8c5be1e5ebec7d5bd14f71427d1e84f3dd0314c0f7b2291e5b200ac8c7c3b925",
            "0x00000000000000000000000089fedb2167197199fd069122e5351a1c779f91b8",
            "0x000000000000000000000000295c2a390114fbb320eac14ebd9647c2508dd87b"
          ],
          "data": "0x0000000000000000000000000000000000000000000000008ac7230489e80000",
          "blockHash": "0x8fcc04b3f059744acebc8de839712f5fea2dc2f677491ac072c038af6c6d2e1b",
          "blockNumber": "0x20f00fe",
          "blockTimestamp": "0x693160dc",
          "transactionHash": "0x6f04d3bc71e656fbabcad5183df4a460c6110ec09a706c67269218761f06c0eb",
          "transactionIndex": "0x15",
          "logIndex": "0x70",
          "removed": false
        }
      ],
      "logsBloom": "0x00000000000000000000000000000000000000000000000000400000000000000000000000000000000000000000000000000000000000000080000000200000000000000000000000000000000000000000000000000000000000000000000000000000000000000000000000000800000000000000000000000000000400000000000400000000000000000000000000000000000000000004000000000000020000000000000000000000000000000000000000000800000000000000000000000000000000000000000000002000000000000000000000000000000000000010000000000000000000000000000000000000400000000000000000000000",
      "type": "0x2",
      "transactionHash": "0x6f04d3bc71e656fbabcad5183df4a460c6110ec09a706c67269218761f06c0eb",
      "transactionIndex": "0x15",
      "blockHash": "0x8fcc04b3f059744acebc8de839712f5fea2dc2f677491ac072c038af6c6d2e1b",
      "blockNumber": "0x20f00fe",
      "gasUsed": "0xba64",
      "effectiveGasPrice": "0x1256b3",
      "blobGasUsed": "0x79e0",
      "from": "0x89fedb2167197199fd069122e5351a1c779f91b8",
      "to": "0xc2f9a0d977afa1df712abd4aac7c8109e3b17e50",
      "contractAddress": null,
      "daFootprintGasScalar": "0x138",
      "l1BaseFeeScalar": "0x44d",
      "l1BlobBaseFee": "0x2a",
      "l1BlobBaseFeeScalar": "0xa118b",
      "l1Fee": "0xae3",
      "l1GasPrice": "0x9",
      "l1GasUsed": "0x640"
    },
    {
      "status": "0x1",
      "cumulativeGasUsed": "0x6fcaa0",
      "logs": [
        {
          "address": "0xc2f9a0d977afa1df712abd4aac7c8109e3b17e50",
          "topics": [
            "0xddf252ad1be2c89b69c2b068fc378daa952ba7f163c4a11628f55a4df523b3ef",
            "0x00000000000000000000000089fedb2167197199fd069122e5351a1c779f91b8",
            "0x000000000000000000000000295c2a390114fbb320eac14ebd9647c2508dd87b"
          ],
          "data": "0x0000000000000000000000000000000000000000000000008ac7230489e80000",
          "blockHash": "0x8fcc04b3f059744acebc8de839712f5fea2dc2f677491ac072c038af6c6d2e1b",
          "blockNumber": "0x20f00fe",
          "blockTimestamp": "0x693160dc",
          "transactionHash": "0x9e3a28e3dd149808b05ba1a46c0ba30680a8aef18dc369cf4b24c6e2613192b1",
          "transactionIndex": "0x16",
          "logIndex": "0x71",
          "removed": false
        }
      ],
      "logsBloom": "0x00000000000000000000000000000000000000000000000000400000000000000000000000000000000000000000000000000000000000000080000000000000000000000000000000000008000000000000000000000000000000000000000000000000000000000000000000000800000000000000000000000010000400000000000400000000000000000000000000000000000000000004000000000000000000000000000000000000000000000000000000000800000000000000000000000002000000000000000000002000000000000000000000000000000000000000000000000000000000000000000000000000400000000000000000000000",
      "type": "0x2",
      "transactionHash": "0x9e3a28e3dd149808b05ba1a46c0ba30680a8aef18dc369cf4b24c6e2613192b1",
      "transactionIndex": "0x16",
      "blockHash": "0x8fcc04b3f059744acebc8de839712f5fea2dc2f677491ac072c038af6c6d2e1b",
      "blockNumber": "0x20f00fe",
      "gasUsed": "0x21fc9",
      "effectiveGasPrice": "0x1256b3",
      "blobGasUsed": "0x79e0",
      "from": "0x89fedb2167197199fd069122e5351a1c779f91b8",
      "to": "0x295c2a390114fbb320eac14ebd9647c2508dd87b",
      "contractAddress": null,
      "daFootprintGasScalar": "0x138",
      "l1BaseFeeScalar": "0x44d",
      "l1BlobBaseFee": "0x2a",
      "l1BlobBaseFeeScalar": "0xa118b",
      "l1Fee": "0xae3",
      "l1GasPrice": "0x9",
      "l1GasUsed": "0x640"
    },
    {
      "status": "0x1",
      "cumulativeGasUsed": "0x7084f8",
      "logs": [
        {
          "address": "0xfae2680f0542e49cde0dbb055a08ff589615827b",
          "topics": [
            "0x8c5be1e5ebec7d5bd14f71427d1e84f3dd0314c0f7b2291e5b200ac8c7c3b925",
            "0x00000000000000000000000089fedb2167197199fd069122e5351a1c779f91b8",
            "0x00000000000000000000000071cd4ea054f9cb3d3bf6251a00673303411a7dd9"
          ],
          "data": "0x0000000000000000000000000000000000000000000000000de0b6b3a7640000",
          "blockHash": "0x8fcc04b3f059744acebc8de839712f5fea2dc2f677491ac072c038af6c6d2e1b",
          "blockNumber": "0x20f00fe",
          "blockTimestamp": "0x693160dc",
          "transactionHash": "0x1ece3c7dc341b6dc5e943821ea067522c9f176a4055004ef73fbf479701ffa8d",
          "transactionIndex": "0x17",
          "logIndex": "0x72",
          "removed": false
        }
      ],
      "logsBloom": "0x00000000000000000000000000000000000000000000000000400000004000000000000000000000000000000000000000000000000000000080000000200000000000000000000000000000000000000000000000000000000000000000000000000000000000000000000000000000000000000000000000000000000000000000000000000000000000000000000000000000000000000004000000000000020000000000000000000000000000000000000000002000004000000000000000000000000000000000020020000000000000000000000000000000000000020010000000000000000000000000000000000000000000000000000000000000",
      "type": "0x2",
      "transactionHash": "0x1ece3c7dc341b6dc5e943821ea067522c9f176a4055004ef73fbf479701ffa8d",
      "transactionIndex": "0x17",
      "blockHash": "0x8fcc04b3f059744acebc8de839712f5fea2dc2f677491ac072c038af6c6d2e1b",
      "blockNumber": "0x20f00fe",
      "gasUsed": "0xba58",
      "effectiveGasPrice": "0x1256b3",
      "blobGasUsed": "0x79e0",
      "from": "0x89fedb2167197199fd069122e5351a1c779f91b8",
      "to": "0xfae2680f0542e49cde0dbb055a08ff589615827b",
      "contractAddress": null,
      "daFootprintGasScalar": "0x138",
      "l1BaseFeeScalar": "0x44d",
      "l1BlobBaseFee": "0x2a",
      "l1BlobBaseFeeScalar": "0xa118b",
      "l1Fee": "0xae3",
      "l1GasPrice": "0x9",
      "l1GasUsed": "0x640"
    },
    {
      "status": "0x1",
      "cumulativeGasUsed": "0x740f4c",
      "logs": [
        {
          "address": "0x295c2a390114fbb320eac14ebd9647c2508dd87b",
          "topics": [
            "0x753d2f21f46f72a4703ff67a9056b4998fabe5d1484955e71454a02afe5dc393",
            "0x0000000000000000000000000000000000000000000000000000000000000000"
          ],
          "data": "0x00000000000000000000000000000000000000000000000000000000001256b3000000000000000000000000000000000000000000000000016345785d8a0000000000000000000000000000c2f9a0d977afa1df712abd4aac7c8109e3b17e50000000000000000000000000fae2680f0542e49cde0dbb055a08ff589615827b0000000000000000000000000000000000000000000000000000000000000001",
          "blockHash": "0x8fcc04b3f059744acebc8de839712f5fea2dc2f677491ac072c038af6c6d2e1b",
          "blockNumber": "0x20f00fe",
          "blockTimestamp": "0x693160dc",
          "transactionHash": "0xf52308915f9f1bb05e0e51077492811af31f5980f06ad5d114eb26212b01a82d",
          "transactionIndex": "0x18",
          "logIndex": "0x73",
          "removed": false
        },
        {
          "address": "0x295c2a390114fbb320eac14ebd9647c2508dd87b",
          "topics": [
            "0xc5c04baeb52def562bbfa6dabf1f228c5206c8d31375940d8d29a4d157433093",
            "0x0000000000000000000000000000000000000000000000000000000000000000"
          ],
          "data": "0x00000000000000000000000000000000000000000000000000000000000000000000000000000000000000000000000000000000000000000000000000000001",
          "blockHash": "0x8fcc04b3f059744acebc8de839712f5fea2dc2f677491ac072c038af6c6d2e1b",
          "blockNumber": "0x20f00fe",
          "blockTimestamp": "0x693160dc",
          "transactionHash": "0xf52308915f9f1bb05e0e51077492811af31f5980f06ad5d114eb26212b01a82d",
          "transactionIndex": "0x18",
          "logIndex": "0x74",
          "removed": false
        },
        {
          "address": "0x05e73354cfdd6745c338b50bcfdfa3aa6fa03408",
          "topics": [
            "0x40e9cecb9f5f1f1c5b9c97dec2917b7ee92e57ba5563708daca94dd84ad7112f",
            "0xe554cde37d260c30f0f187e4bdeaa250046cf72700c8ef76d72e744bc5289973",
            "0x00000000000000000000000071cd4ea054f9cb3d3bf6251a00673303411a7dd9"
          ],
          "data": "0x0000000000000000000000000000000000000000000000000db6be37da38c947fffffffffffffffffffffffffffffffffffffffffffffffff21f494c589c00000000000000000000000000000000000000000001024884da9050a7d277c56ff60000000000000000000000000000000000000000000000060f4da7fe284f5dea00000000000000000000000000000000000000000000000000000000000000b10000000000000000000000000000000000000000000000000000000000000bb8",
          "blockHash": "0x8fcc04b3f059744acebc8de839712f5fea2dc2f677491ac072c038af6c6d2e1b",
          "blockNumber": "0x20f00fe",
          "blockTimestamp": "0x693160dc",
          "transactionHash": "0xf52308915f9f1bb05e0e51077492811af31f5980f06ad5d114eb26212b01a82d",
          "transactionIndex": "0x18",
          "logIndex": "0x75",
          "removed": false
        },
        {
          "address": "0xfae2680f0542e49cde0dbb055a08ff589615827b",
          "topics": [
            "0xddf252ad1be2c89b69c2b068fc378daa952ba7f163c4a11628f55a4df523b3ef",
            "0x00000000000000000000000089fedb2167197199fd069122e5351a1c779f91b8",
            "0x00000000000000000000000005e73354cfdd6745c338b50bcfdfa3aa6fa03408"
          ],
          "data": "0x0000000000000000000000000000000000000000000000000de0b6b3a7640000",
          "blockHash": "0x8fcc04b3f059744acebc8de839712f5fea2dc2f677491ac072c038af6c6d2e1b",
          "blockNumber": "0x20f00fe",
          "blockTimestamp": "0x693160dc",
          "transactionHash": "0xf52308915f9f1bb05e0e51077492811af31f5980f06ad5d114eb26212b01a82d",
          "transactionIndex": "0x18",
          "logIndex": "0x76",
          "removed": false
        },
        {
          "address": "0xc2f9a0d977afa1df712abd4aac7c8109e3b17e50",
          "topics": [
            "0xddf252ad1be2c89b69c2b068fc378daa952ba7f163c4a11628f55a4df523b3ef",
            "0x00000000000000000000000005e73354cfdd6745c338b50bcfdfa3aa6fa03408",
            "0x00000000000000000000000089fedb2167197199fd069122e5351a1c779f91b8"
          ],
          "data": "0x0000000000000000000000000000000000000000000000000db6be37da38c947",
          "blockHash": "0x8fcc04b3f059744acebc8de839712f5fea2dc2f677491ac072c038af6c6d2e1b",
          "blockNumber": "0x20f00fe",
          "blockTimestamp": "0x693160dc",
          "transactionHash": "0xf52308915f9f1bb05e0e51077492811af31f5980f06ad5d114eb26212b01a82d",
          "transactionIndex": "0x18",
          "logIndex": "0x77",
          "removed": false
        }
      ],
      "logsBloom": "0x00008000000000100000000000010000000000000000000000400000004000000000000100000040000000000000000000002000040000000080000000000400000000000010000000000008000000000000000000100020000000000000000000000000020000000000000000000800000000000000000008000010000000000000000004000000000000000000000000000000000000000004000000000000000000000000000000080000800080000000000000002800004000000000000000000002001000000000020020002000000000000000000000000000000020020000000000000000804000000800000000000000000000000002000000000000",
      "type": "0x2",
      "transactionHash": "0xf52308915f9f1bb05e0e51077492811af31f5980f06ad5d114eb26212b01a82d",
      "transactionIndex": "0x18",
      "blockHash": "0x8fcc04b3f059744acebc8de839712f5fea2dc2f677491ac072c038af6c6d2e1b",
      "blockNumber": "0x20f00fe",
      "gasUsed": "0x38a54",
      "effectiveGasPrice": "0x1256b3",
      "blobGasUsed": "0xe2b0",
      "from": "0x89fedb2167197199fd069122e5351a1c779f91b8",
      "to": "0x71cd4ea054f9cb3d3bf6251a00673303411a7dd9",
      "contractAddress": null,
      "daFootprintGasScalar": "0x138",
      "l1BaseFeeScalar": "0x44d",
      "l1BlobBaseFee": "0x2a",
      "l1BlobBaseFeeScalar": "0xa118b",
      "l1Fee": "0x1451",
      "l1GasPrice": "0x9",
      "l1GasUsed": "0xba9"
    }
  ],
  "libraries": [],
  "pending": [],
  "returns": {},
  "timestamp": 1764843741801,
  "chain": 84532,
  "commit": "7025c08"
}